{
	"data": {
		"bytecode": {
			"linkReferences": {},
			"object": "6080604052600a5f55348015610013575f80fd5b5061051e806100215f395ff3fe608060405234801561000f575f80fd5b5060043610610060575f3560e01c806305e30f51146100645780632efad609146100805780635206f100146100b057806354f363a3146100ce578063a1623dce146100fe578063cdeb33141461011a575b5f80fd5b61007e60048036038101906100799190610275565b61014a565b005b61009a600480360381019061009591906102d3565b61015f565b6040516100a79190610320565b60405180910390f35b6100b8610174565b6040516100c59190610348565b60405180910390f35b6100e860048036038101906100e39190610361565b610179565b6040516100f59190610348565b60405180910390f35b61011860048036038101906101139190610275565b6101ca565b005b610134600480360381019061012f9190610361565b6101ed565b6040516101419190610348565b60405180910390f35b805f5461015791906103cc565b5f8190555050565b5f818361016c919061040d565b905092915050565b5f5481565b5f8183610186919061044d565b90507f099a8fd2a0841afbe8000d711d763bf2c54b2c63bed7b7f92a244ef4f515453683835f546040516101bc93929190610480565b60405180910390a192915050565b80600a81146101d7575f80fd5b815f546101e491906103cc565b5f819055505050565b5f81836101fa91906104b5565b90507f02325f53408b10d20290d06f069ad56eb7ecae5db225e14d71cda2c523652c5b83835f5460405161023093929190610480565b60405180910390a192915050565b5f80fd5b5f819050919050565b61025481610242565b811461025e575f80fd5b50565b5f8135905061026f8161024b565b92915050565b5f6020828403121561028a5761028961023e565b5b5f61029784828501610261565b91505092915050565b5f819050919050565b6102b2816102a0565b81146102bc575f80fd5b50565b5f813590506102cd816102a9565b92915050565b5f80604083850312156102e9576102e861023e565b5b5f6102f6858286016102bf565b9250506020610307858286016102bf565b9150509250929050565b61031a816102a0565b82525050565b5f6020820190506103335f830184610311565b92915050565b61034281610242565b82525050565b5f60208201905061035b5f830184610339565b92915050565b5f80604083850312156103775761037661023e565b5b5f61038485828601610261565b925050602061039585828601610261565b9150509250929050565b7f4e487b71000000000000000000000000000000000000000000000000000000005f52601160045260245ffd5b5f6103d682610242565b91506103e183610242565b92508282026103ef81610242565b915082820484148315176104065761040561039f565b5b5092915050565b5f610417826102a0565b9150610422836102a0565b925082820390508181125f8412168282135f8512151617156104475761044661039f565b5b92915050565b5f61045782610242565b915061046283610242565b925082820190508082111561047a5761047961039f565b5b92915050565b5f6060820190506104935f830186610339565b6104a06020830185610339565b6104ad6040830184610339565b949350505050565b5f6104bf82610242565b91506104ca83610242565b92508282039050818111156104e2576104e161039f565b5b9291505056fea2646970667358221220c6d1164c28e3fc3d5f46765239542558b62ee0d1ad881b97c5c7afc4f3ac1c0c64736f6c63430008180033",
			"opcodes": "PUSH1 0x80 PUSH1 0x40 MSTORE PUSH1 0xA PUSH0 SSTORE CALLVALUE DUP1 ISZERO PUSH2 0x13 JUMPI PUSH0 DUP1 REVERT JUMPDEST POP PUSH2 0x51E DUP1 PUSH2 0x21 PUSH0 CODECOPY PUSH0 RETURN INVALID PUSH1 0x80 PUSH1 0x40 MSTORE CALLVALUE DUP1 ISZERO PUSH2 0xF JUMPI PUSH0 DUP1 REVERT JUMPDEST POP PUSH1 0x4 CALLDATASIZE LT PUSH2 0x60 JUMPI PUSH0 CALLDATALOAD PUSH1 0xE0 SHR DUP1 PUSH4 0x5E30F51 EQ PUSH2 0x64 JUMPI DUP1 PUSH4 0x2EFAD609 EQ PUSH2 0x80 JUMPI DUP1 PUSH4 0x5206F100 EQ PUSH2 0xB0 JUMPI DUP1 PUSH4 0x54F363A3 EQ PUSH2 0xCE JUMPI DUP1 PUSH4 0xA1623DCE EQ PUSH2 0xFE JUMPI DUP1 PUSH4 0xCDEB3314 EQ PUSH2 0x11A JUMPI JUMPDEST PUSH0 DUP1 REVERT JUMPDEST PUSH2 0x7E PUSH1 0x4 DUP1 CALLDATASIZE SUB DUP2 ADD SWAP1 PUSH2 0x79 SWAP2 SWAP1 PUSH2 0x275 JUMP JUMPDEST PUSH2 0x14A JUMP JUMPDEST STOP JUMPDEST PUSH2 0x9A PUSH1 0x4 DUP1 CALLDATASIZE SUB DUP2 ADD SWAP1 PUSH2 0x95 SWAP2 SWAP1 PUSH2 0x2D3 JUMP JUMPDEST PUSH2 0x15F JUMP JUMPDEST PUSH1 0x40 MLOAD PUSH2 0xA7 SWAP2 SWAP1 PUSH2 0x320 JUMP JUMPDEST PUSH1 0x40 MLOAD DUP1 SWAP2 SUB SWAP1 RETURN JUMPDEST PUSH2 0xB8 PUSH2 0x174 JUMP JUMPDEST PUSH1 0x40 MLOAD PUSH2 0xC5 SWAP2 SWAP1 PUSH2 0x348 JUMP JUMPDEST PUSH1 0x40 MLOAD DUP1 SWAP2 SUB SWAP1 RETURN JUMPDEST PUSH2 0xE8 PUSH1 0x4 DUP1 CALLDATASIZE SUB DUP2 ADD SWAP1 PUSH2 0xE3 SWAP2 SWAP1 PUSH2 0x361 JUMP JUMPDEST PUSH2 0x179 JUMP JUMPDEST PUSH1 0x40 MLOAD PUSH2 0xF5 SWAP2 SWAP1 PUSH2 0x348 JUMP JUMPDEST PUSH1 0x40 MLOAD DUP1 SWAP2 SUB SWAP1 RETURN JUMPDEST PUSH2 0x118 PUSH1 0x4 DUP1 CALLDATASIZE SUB DUP2 ADD SWAP1 PUSH2 0x113 SWAP2 SWAP1 PUSH2 0x275 JUMP JUMPDEST PUSH2 0x1CA JUMP JUMPDEST STOP JUMPDEST PUSH2 0x134 PUSH1 0x4 DUP1 CALLDATASIZE SUB DUP2 ADD SWAP1 PUSH2 0x12F SWAP2 SWAP1 PUSH2 0x361 JUMP JUMPDEST PUSH2 0x1ED JUMP JUMPDEST PUSH1 0x40 MLOAD PUSH2 0x141 SWAP2 SWAP1 PUSH2 0x348 JUMP JUMPDEST PUSH1 0x40 MLOAD DUP1 SWAP2 SUB SWAP1 RETURN JUMPDEST DUP1 PUSH0 SLOAD PUSH2 0x157 SWAP2 SWAP1 PUSH2 0x3CC JUMP JUMPDEST PUSH0 DUP2 SWAP1 SSTORE POP POP JUMP JUMPDEST PUSH0 DUP2 DUP4 PUSH2 0x16C SWAP2 SWAP1 PUSH2 0x40D JUMP JUMPDEST SWAP1 POP SWAP3 SWAP2 POP POP JUMP JUMPDEST PUSH0 SLOAD DUP2 JUMP JUMPDEST PUSH0 DUP2 DUP4 PUSH2 0x186 SWAP2 SWAP1 PUSH2 0x44D JUMP JUMPDEST SWAP1 POP PUSH32 0x99A8FD2A0841AFBE8000D711D763BF2C54B2C63BED7B7F92A244EF4F5154536 DUP4 DUP4 PUSH0 SLOAD PUSH1 0x40 MLOAD PUSH2 0x1BC SWAP4 SWAP3 SWAP2 SWAP1 PUSH2 0x480 JUMP JUMPDEST PUSH1 0x40 MLOAD DUP1 SWAP2 SUB SWAP1 LOG1 SWAP3 SWAP2 POP POP JUMP JUMPDEST DUP1 PUSH1 0xA DUP2 EQ PUSH2 0x1D7 JUMPI PUSH0 DUP1 REVERT JUMPDEST DUP2 PUSH0 SLOAD PUSH2 0x1E4 SWAP2 SWAP1 PUSH2 0x3CC JUMP JUMPDEST PUSH0 DUP2 SWAP1 SSTORE POP POP POP JUMP JUMPDEST PUSH0 DUP2 DUP4 PUSH2 0x1FA SWAP2 SWAP1 PUSH2 0x4B5 JUMP JUMPDEST SWAP1 POP PUSH32 0x2325F53408B10D20290D06F069AD56EB7ECAE5DB225E14D71CDA2C523652C5B DUP4 DUP4 PUSH0 SLOAD PUSH1 0x40 MLOAD PUSH2 0x230 SWAP4 SWAP3 SWAP2 SWAP1 PUSH2 0x480 JUMP JUMPDEST PUSH1 0x40 MLOAD DUP1 SWAP2 SUB SWAP1 LOG1 SWAP3 SWAP2 POP POP JUMP JUMPDEST PUSH0 DUP1 REVERT JUMPDEST PUSH0 DUP2 SWAP1 POP SWAP2 SWAP1 POP JUMP JUMPDEST PUSH2 0x254 DUP2 PUSH2 0x242 JUMP JUMPDEST DUP2 EQ PUSH2 0x25E JUMPI PUSH0 DUP1 REVERT JUMPDEST POP JUMP JUMPDEST PUSH0 DUP2 CALLDATALOAD SWAP1 POP PUSH2 0x26F DUP2 PUSH2 0x24B JUMP JUMPDEST SWAP3 SWAP2 POP POP JUMP JUMPDEST PUSH0 PUSH1 0x20 DUP3 DUP5 SUB SLT ISZERO PUSH2 0x28A JUMPI PUSH2 0x289 PUSH2 0x23E JUMP JUMPDEST JUMPDEST PUSH0 PUSH2 0x297 DUP5 DUP3 DUP6 ADD PUSH2 0x261 JUMP JUMPDEST SWAP2 POP POP SWAP3 SWAP2 POP POP JUMP JUMPDEST PUSH0 DUP2 SWAP1 POP SWAP2 SWAP1 POP JUMP JUMPDEST PUSH2 0x2B2 DUP2 PUSH2 0x2A0 JUMP JUMPDEST DUP2 EQ PUSH2 0x2BC JUMPI PUSH0 DUP1 REVERT JUMPDEST POP JUMP JUMPDEST PUSH0 DUP2 CALLDATALOAD SWAP1 POP PUSH2 0x2CD DUP2 PUSH2 0x2A9 JUMP JUMPDEST SWAP3 SWAP2 POP POP JUMP JUMPDEST PUSH0 DUP1 PUSH1 0x40 DUP4 DUP6 SUB SLT ISZERO PUSH2 0x2E9 JUMPI PUSH2 0x2E8 PUSH2 0x23E JUMP JUMPDEST JUMPDEST PUSH0 PUSH2 0x2F6 DUP6 DUP3 DUP7 ADD PUSH2 0x2BF JUMP JUMPDEST SWAP3 POP POP PUSH1 0x20 PUSH2 0x307 DUP6 DUP3 DUP7 ADD PUSH2 0x2BF JUMP JUMPDEST SWAP2 POP POP SWAP3 POP SWAP3 SWAP1 POP JUMP JUMPDEST PUSH2 0x31A DUP2 PUSH2 0x2A0 JUMP JUMPDEST DUP3 MSTORE POP POP JUMP JUMPDEST PUSH0 PUSH1 0x20 DUP3 ADD SWAP1 POP PUSH2 0x333 PUSH0 DUP4 ADD DUP5 PUSH2 0x311 JUMP JUMPDEST SWAP3 SWAP2 POP POP JUMP JUMPDEST PUSH2 0x342 DUP2 PUSH2 0x242 JUMP JUMPDEST DUP3 MSTORE POP POP JUMP JUMPDEST PUSH0 PUSH1 0x20 DUP3 ADD SWAP1 POP PUSH2 0x35B PUSH0 DUP4 ADD DUP5 PUSH2 0x339 JUMP JUMPDEST SWAP3 SWAP2 POP POP JUMP JUMPDEST PUSH0 DUP1 PUSH1 0x40 DUP4 DUP6 SUB SLT ISZERO PUSH2 0x377 JUMPI PUSH2 0x376 PUSH2 0x23E JUMP JUMPDEST JUMPDEST PUSH0 PUSH2 0x384 DUP6 DUP3 DUP7 ADD PUSH2 0x261 JUMP JUMPDEST SWAP3 POP POP PUSH1 0x20 PUSH2 0x395 DUP6 DUP3 DUP7 ADD PUSH2 0x261 JUMP JUMPDEST SWAP2 POP POP SWAP3 POP SWAP3 SWAP1 POP JUMP JUMPDEST PUSH32 0x4E487B7100000000000000000000000000000000000000000000000000000000 PUSH0 MSTORE PUSH1 0x11 PUSH1 0x4 MSTORE PUSH1 0x24 PUSH0 REVERT JUMPDEST PUSH0 PUSH2 0x3D6 DUP3 PUSH2 0x242 JUMP JUMPDEST SWAP2 POP PUSH2 0x3E1 DUP4 PUSH2 0x242 JUMP JUMPDEST SWAP3 POP DUP3 DUP3 MUL PUSH2 0x3EF DUP2 PUSH2 0x242 JUMP JUMPDEST SWAP2 POP DUP3 DUP3 DIV DUP5 EQ DUP4 ISZERO OR PUSH2 0x406 JUMPI PUSH2 0x405 PUSH2 0x39F JUMP JUMPDEST JUMPDEST POP SWAP3 SWAP2 POP POP JUMP JUMPDEST PUSH0 PUSH2 0x417 DUP3 PUSH2 0x2A0 JUMP JUMPDEST SWAP2 POP PUSH2 0x422 DUP4 PUSH2 0x2A0 JUMP JUMPDEST SWAP3 POP DUP3 DUP3 SUB SWAP1 POP DUP2 DUP2 SLT PUSH0 DUP5 SLT AND DUP3 DUP3 SGT PUSH0 DUP6 SLT ISZERO AND OR ISZERO PUSH2 0x447 JUMPI PUSH2 0x446 PUSH2 0x39F JUMP JUMPDEST JUMPDEST SWAP3 SWAP2 POP POP JUMP JUMPDEST PUSH0 PUSH2 0x457 DUP3 PUSH2 0x242 JUMP JUMPDEST SWAP2 POP PUSH2 0x462 DUP4 PUSH2 0x242 JUMP JUMPDEST SWAP3 POP DUP3 DUP3 ADD SWAP1 POP DUP1 DUP3 GT ISZERO PUSH2 0x47A JUMPI PUSH2 0x479 PUSH2 0x39F JUMP JUMPDEST JUMPDEST SWAP3 SWAP2 POP POP JUMP JUMPDEST PUSH0 PUSH1 0x60 DUP3 ADD SWAP1 POP PUSH2 0x493 PUSH0 DUP4 ADD DUP7 PUSH2 0x339 JUMP JUMPDEST PUSH2 0x4A0 PUSH1 0x20 DUP4 ADD DUP6 PUSH2 0x339 JUMP JUMPDEST PUSH2 0x4AD PUSH1 0x40 DUP4 ADD DUP5 PUSH2 0x339 JUMP JUMPDEST SWAP5 SWAP4 POP POP POP POP JUMP JUMPDEST PUSH0 PUSH2 0x4BF DUP3 PUSH2 0x242 JUMP JUMPDEST SWAP2 POP PUSH2 0x4CA DUP4 PUSH2 0x242 JUMP JUMPDEST SWAP3 POP DUP3 DUP3 SUB SWAP1 POP DUP2 DUP2 GT ISZERO PUSH2 0x4E2 JUMPI PUSH2 0x4E1 PUSH2 0x39F JUMP JUMPDEST JUMPDEST SWAP3 SWAP2 POP POP JUMP INVALID LOG2 PUSH5 0x6970667358 0x22 SLT KECCAK256 0xC6 0xD1 AND 0x4C 0x28 0xE3 0xFC RETURNDATASIZE PUSH0 CHAINID PUSH23 0x5239542558B62EE0D1AD881B97C5C7AFC4F3AC1C0C6473 PUSH16 0x6C634300081800330000000000000000 "
		},
		"gasEstimates": {
			"creation": {
				"codeDepositCost": "262000",
				"executionCost": "22403",
				"totalCost": "284403"
			},
			"external": {
				"addition(uint256,uint256)": "infinite",
				"multiplier(uint256)": "infinite",
				"multiplier2(uint256)": "infinite",
				"resultado()": "2446",
				"substraction(uint256,uint256)": "infinite",
				"substraction2(int256,int256)": "infinite"
			},
			"internal": {
				"substraction_logic(uint256,uint256)": "infinite",
				"substraction_logic2(int256,int256)": "infinite"
			}
		},
		"methodIdentifiers": {
			"addition(uint256,uint256)": "54f363a3",
			"multiplier(uint256)": "05e30f51",
			"multiplier2(uint256)": "a1623dce",
			"resultado()": "5206f100",
			"substraction(uint256,uint256)": "cdeb3314",
			"substraction2(int256,int256)": "2efad609"
		}
	},
	"abi": [
		{
			"anonymous": false,
			"inputs": [
				{
					"indexed": false,
					"internalType": "uint256",
					"name": "number1",
					"type": "uint256"
				},
				{
					"indexed": false,
					"internalType": "uint256",
					"name": "number2",
					"type": "uint256"
				},
				{
					"indexed": false,
					"internalType": "uint256",
					"name": "resultado",
					"type": "uint256"
				}
			],
			"name": "Addition",
			"type": "event"
		},
		{
			"anonymous": false,
			"inputs": [
				{
					"indexed": false,
					"internalType": "uint256",
					"name": "number1",
					"type": "uint256"
				},
				{
					"indexed": false,
					"internalType": "uint256",
					"name": "number2",
					"type": "uint256"
				},
				{
					"indexed": false,
					"internalType": "uint256",
					"name": "resultado",
					"type": "uint256"
				}
			],
			"name": "Substraction",
			"type": "event"
		},
		{
			"inputs": [
				{
					"internalType": "uint256",
					"name": "num1_",
					"type": "uint256"
				},
				{
					"internalType": "uint256",
					"name": "num2_",
					"type": "uint256"
				}
			],
			"name": "addition",
			"outputs": [
				{
					"internalType": "uint256",
					"name": "resultado_",
					"type": "uint256"
				}
			],
			"stateMutability": "nonpayable",
			"type": "function"
		},
		{
			"inputs": [
				{
					"internalType": "uint256",
					"name": "num1_",
					"type": "uint256"
				}
			],
			"name": "multiplier",
			"outputs": [],
			"stateMutability": "nonpayable",
			"type": "function"
		},
		{
			"inputs": [
				{
					"internalType": "uint256",
					"name": "num1_",
					"type": "uint256"
				}
			],
			"name": "multiplier2",
			"outputs": [],
			"stateMutability": "nonpayable",
			"type": "function"
		},
		{
			"inputs": [],
			"name": "resultado",
			"outputs": [
				{
					"internalType": "uint256",
					"name": "",
					"type": "uint256"
				}
			],
			"stateMutability": "view",
			"type": "function"
		},
		{
			"inputs": [
				{
					"internalType": "uint256",
					"name": "num1_",
					"type": "uint256"
				},
				{
					"internalType": "uint256",
					"name": "num2_",
					"type": "uint256"
				}
			],
			"name": "substraction",
			"outputs": [
				{
					"internalType": "uint256",
					"name": "resultado_",
					"type": "uint256"
				}
			],
			"stateMutability": "nonpayable",
			"type": "function"
		},
		{
			"inputs": [
				{
					"internalType": "int256",
					"name": "num1_",
					"type": "int256"
				},
				{
					"internalType": "int256",
					"name": "num2_",
					"type": "int256"
				}
			],
			"name": "substraction2",
			"outputs": [
				{
					"internalType": "int256",
					"name": "resultado_",
					"type": "int256"
				}
			],
			"stateMutability": "pure",
			"type": "function"
		}
	]
}