{
	"Bloque 2 Remix/Users.sol": {
		"Users": {
			"abi": [
				{
					"inputs": [
						{
							"internalType": "string",
							"name": "user_",
							"type": "string"
						}
					],
					"name": "insert1",
					"outputs": [
						{
							"internalType": "string",
							"name": "",
							"type": "string"
						}
					],
					"stateMutability": "nonpayable",
					"type": "function"
				},
				{
					"inputs": [
						{
							"internalType": "uint256",
							"name": "",
							"type": "uint256"
						}
					],
					"name": "users",
					"outputs": [
						{
							"internalType": "string",
							"name": "",
							"type": "string"
						}
					],
					"stateMutability": "view",
					"type": "function"
				}
			],
			"devdoc": {
				"kind": "dev",
				"methods": {},
				"version": 1
			},
			"evm": {
				"assembly": "    /* \"Bloque 2 Remix/Users.sol\":64:925  contract Users{... */\n  mstore(0x40, 0x80)\n    /* \"Bloque 2 Remix/Users.sol\":105:186  string[] public users = [\"admin\", \"John12\", \"Manolete77\", \"gcuellar\", \"Carlos23\"] */\n  mload(0x40)\n  dup1\n  0xa0\n  add\n  0x40\n  mstore\n  dup1\n  mload(0x40)\n  dup1\n  0x40\n  add\n  0x40\n  mstore\n  dup1\n  0x05\n  dup2\n  mstore\n  0x20\n  add\n  0x61646d696e000000000000000000000000000000000000000000000000000000\n  dup2\n  mstore\n  pop\n  dup2\n  mstore\n  0x20\n  add\n  mload(0x40)\n  dup1\n  0x40\n  add\n  0x40\n  mstore\n  dup1\n  0x06\n  dup2\n  mstore\n  0x20\n  add\n  0x4a6f686e31320000000000000000000000000000000000000000000000000000\n  dup2\n  mstore\n  pop\n  dup2\n  mstore\n  0x20\n  add\n  mload(0x40)\n  dup1\n  0x40\n  add\n  0x40\n  mstore\n  dup1\n  0x0a\n  dup2\n  mstore\n  0x20\n  add\n  0x4d616e6f6c657465373700000000000000000000000000000000000000000000\n  dup2\n  mstore\n  pop\n  dup2\n  mstore\n  0x20\n  add\n  mload(0x40)\n  dup1\n  0x40\n  add\n  0x40\n  mstore\n  dup1\n  0x08\n  dup2\n  mstore\n  0x20\n  add\n  0x676375656c6c6172000000000000000000000000000000000000000000000000\n  dup2\n  mstore\n  pop\n  dup2\n  mstore\n  0x20\n  add\n  mload(0x40)\n  dup1\n  0x40\n  add\n  0x40\n  mstore\n  dup1\n  0x08\n  dup2\n  mstore\n  0x20\n  add\n  0x4361726c6f733233000000000000000000000000000000000000000000000000\n  dup2\n  mstore\n  pop\n  dup2\n  mstore\n  pop\n  0x00\n  swap1\n  0x05\n  tag_1\n  swap3\n  swap2\n  swap1\n  tag_2\n  jump\t// in\ntag_1:\n  pop\n    /* \"Bloque 2 Remix/Users.sol\":64:925  contract Users{... */\n  callvalue\n  dup1\n  iszero\n  tag_3\n  jumpi\n  0x00\n  dup1\n  revert\ntag_3:\n  pop\n  jump(tag_4)\ntag_2:\n  dup3\n  dup1\n  sload\n  dup3\n  dup3\n  sstore\n  swap1\n  0x00\n  mstore\n  keccak256(0x00, 0x20)\n  swap1\n  dup2\n  add\n  swap3\n  dup3\n  iszero\n  tag_5\n  jumpi\n  swap2\n  0x20\n  mul\n  dup3\n  add\ntag_6:\n  dup3\n  dup2\n  gt\n  iszero\n  tag_7\n  jumpi\n  dup3\n  mload\n  dup3\n  swap1\n  dup2\n  tag_8\n  swap2\n  swap1\n  tag_9\n  jump\t// in\ntag_8:\n  pop\n  swap2\n  0x20\n  add\n  swap2\n  swap1\n  0x01\n  add\n  swap1\n  jump(tag_6)\ntag_7:\ntag_5:\n  pop\n  swap1\n  pop\n  tag_10\n  swap2\n  swap1\n  tag_11\n  jump\t// in\ntag_10:\n  pop\n  swap1\n  jump\t// out\ntag_11:\ntag_12:\n  dup1\n  dup3\n  gt\n  iszero\n  tag_13\n  jumpi\n  0x00\n  dup2\n  dup2\n  tag_14\n  swap2\n  swap1\n  tag_15\n  jump\t// in\ntag_14:\n  pop\n  0x01\n  add\n  jump(tag_12)\ntag_13:\n  pop\n  swap1\n  jump\t// out\ntag_15:\n  pop\n  dup1\n  sload\n  tag_16\n  swap1\n  tag_17\n  jump\t// in\ntag_16:\n  0x00\n  dup3\n  sstore\n  dup1\n  0x1f\n  lt\n  tag_19\n  jumpi\n  pop\n  jump(tag_18)\ntag_19:\n  0x1f\n  add\n  0x20\n  swap1\n  div\n  swap1\n  0x00\n  mstore\n  keccak256(0x00, 0x20)\n  swap1\n  dup2\n  add\n  swap1\n  tag_20\n  swap2\n  swap1\n  tag_21\n  jump\t// in\ntag_20:\ntag_18:\n  pop\n  jump\t// out\ntag_21:\ntag_22:\n  dup1\n  dup3\n  gt\n  iszero\n  tag_23\n  jumpi\n  0x00\n  dup2\n  0x00\n  swap1\n  sstore\n  pop\n  0x01\n  add\n  jump(tag_22)\ntag_23:\n  pop\n  swap1\n  jump\t// out\n    /* \"#utility.yul\":7:106   */\ntag_24:\n    /* \"#utility.yul\":59:65   */\n  0x00\n    /* \"#utility.yul\":93:98   */\n  dup2\n    /* \"#utility.yul\":87:99   */\n  mload\n    /* \"#utility.yul\":77:99   */\n  swap1\n  pop\n    /* \"#utility.yul\":7:106   */\n  swap2\n  swap1\n  pop\n  jump\t// out\n    /* \"#utility.yul\":112:292   */\ntag_25:\n    /* \"#utility.yul\":160:237   */\n  0x4e487b7100000000000000000000000000000000000000000000000000000000\n    /* \"#utility.yul\":157:158   */\n  0x00\n    /* \"#utility.yul\":150:238   */\n  mstore\n    /* \"#utility.yul\":257:261   */\n  0x41\n    /* \"#utility.yul\":254:255   */\n  0x04\n    /* \"#utility.yul\":247:262   */\n  mstore\n    /* \"#utility.yul\":281:285   */\n  0x24\n    /* \"#utility.yul\":278:279   */\n  0x00\n    /* \"#utility.yul\":271:286   */\n  revert\n    /* \"#utility.yul\":298:478   */\ntag_26:\n    /* \"#utility.yul\":346:423   */\n  0x4e487b7100000000000000000000000000000000000000000000000000000000\n    /* \"#utility.yul\":343:344   */\n  0x00\n    /* \"#utility.yul\":336:424   */\n  mstore\n    /* \"#utility.yul\":443:447   */\n  0x22\n    /* \"#utility.yul\":440:441   */\n  0x04\n    /* \"#utility.yul\":433:448   */\n  mstore\n    /* \"#utility.yul\":467:471   */\n  0x24\n    /* \"#utility.yul\":464:465   */\n  0x00\n    /* \"#utility.yul\":457:472   */\n  revert\n    /* \"#utility.yul\":484:804   */\ntag_17:\n    /* \"#utility.yul\":528:534   */\n  0x00\n    /* \"#utility.yul\":565:566   */\n  0x02\n    /* \"#utility.yul\":559:563   */\n  dup3\n    /* \"#utility.yul\":555:567   */\n  div\n    /* \"#utility.yul\":545:567   */\n  swap1\n  pop\n    /* \"#utility.yul\":612:613   */\n  0x01\n    /* \"#utility.yul\":606:610   */\n  dup3\n    /* \"#utility.yul\":602:614   */\n  and\n    /* \"#utility.yul\":633:651   */\n  dup1\n    /* \"#utility.yul\":623:704   */\n  tag_48\n  jumpi\n    /* \"#utility.yul\":689:693   */\n  0x7f\n    /* \"#utility.yul\":681:687   */\n  dup3\n    /* \"#utility.yul\":677:694   */\n  and\n    /* \"#utility.yul\":667:694   */\n  swap2\n  pop\n    /* \"#utility.yul\":623:704   */\ntag_48:\n    /* \"#utility.yul\":751:753   */\n  0x20\n    /* \"#utility.yul\":743:749   */\n  dup3\n    /* \"#utility.yul\":740:754   */\n  lt\n    /* \"#utility.yul\":720:738   */\n  dup2\n    /* \"#utility.yul\":717:755   */\n  sub\n    /* \"#utility.yul\":714:798   */\n  tag_49\n  jumpi\n    /* \"#utility.yul\":770:788   */\n  tag_50\n  tag_26\n  jump\t// in\ntag_50:\n    /* \"#utility.yul\":714:798   */\ntag_49:\n    /* \"#utility.yul\":535:804   */\n  pop\n    /* \"#utility.yul\":484:804   */\n  swap2\n  swap1\n  pop\n  jump\t// out\n    /* \"#utility.yul\":810:951   */\ntag_27:\n    /* \"#utility.yul\":859:863   */\n  0x00\n    /* \"#utility.yul\":882:885   */\n  dup2\n    /* \"#utility.yul\":874:885   */\n  swap1\n  pop\n    /* \"#utility.yul\":905:908   */\n  dup2\n    /* \"#utility.yul\":902:903   */\n  0x00\n    /* \"#utility.yul\":895:909   */\n  mstore\n    /* \"#utility.yul\":939:943   */\n  0x20\n    /* \"#utility.yul\":936:937   */\n  0x00\n    /* \"#utility.yul\":926:944   */\n  keccak256\n    /* \"#utility.yul\":918:944   */\n  swap1\n  pop\n    /* \"#utility.yul\":810:951   */\n  swap2\n  swap1\n  pop\n  jump\t// out\n    /* \"#utility.yul\":957:1050   */\ntag_28:\n    /* \"#utility.yul\":994:1000   */\n  0x00\n    /* \"#utility.yul\":1041:1043   */\n  0x20\n    /* \"#utility.yul\":1036:1038   */\n  0x1f\n    /* \"#utility.yul\":1029:1034   */\n  dup4\n    /* \"#utility.yul\":1025:1039   */\n  add\n    /* \"#utility.yul\":1021:1044   */\n  div\n    /* \"#utility.yul\":1011:1044   */\n  swap1\n  pop\n    /* \"#utility.yul\":957:1050   */\n  swap2\n  swap1\n  pop\n  jump\t// out\n    /* \"#utility.yul\":1056:1163   */\ntag_29:\n    /* \"#utility.yul\":1100:1108   */\n  0x00\n    /* \"#utility.yul\":1150:1155   */\n  dup3\n    /* \"#utility.yul\":1144:1148   */\n  dup3\n    /* \"#utility.yul\":1140:1156   */\n  shl\n    /* \"#utility.yul\":1119:1156   */\n  swap1\n  pop\n    /* \"#utility.yul\":1056:1163   */\n  swap3\n  swap2\n  pop\n  pop\n  jump\t// out\n    /* \"#utility.yul\":1169:1562   */\ntag_30:\n    /* \"#utility.yul\":1238:1244   */\n  0x00\n    /* \"#utility.yul\":1288:1289   */\n  0x08\n    /* \"#utility.yul\":1276:1286   */\n  dup4\n    /* \"#utility.yul\":1272:1290   */\n  mul\n    /* \"#utility.yul\":1311:1408   */\n  tag_55\n    /* \"#utility.yul\":1341:1407   */\n  0xffffffffffffffffffffffffffffffffffffffffffffffffffffffffffffffff\n    /* \"#utility.yul\":1330:1339   */\n  dup3\n    /* \"#utility.yul\":1311:1408   */\n  tag_29\n  jump\t// in\ntag_55:\n    /* \"#utility.yul\":1429:1468   */\n  tag_56\n    /* \"#utility.yul\":1459:1467   */\n  dup7\n    /* \"#utility.yul\":1448:1457   */\n  dup4\n    /* \"#utility.yul\":1429:1468   */\n  tag_29\n  jump\t// in\ntag_56:\n    /* \"#utility.yul\":1417:1468   */\n  swap6\n  pop\n    /* \"#utility.yul\":1501:1505   */\n  dup1\n    /* \"#utility.yul\":1497:1506   */\n  not\n    /* \"#utility.yul\":1490:1495   */\n  dup5\n    /* \"#utility.yul\":1486:1507   */\n  and\n    /* \"#utility.yul\":1477:1507   */\n  swap4\n  pop\n    /* \"#utility.yul\":1550:1554   */\n  dup1\n    /* \"#utility.yul\":1540:1548   */\n  dup7\n    /* \"#utility.yul\":1536:1555   */\n  and\n    /* \"#utility.yul\":1529:1534   */\n  dup5\n    /* \"#utility.yul\":1526:1556   */\n  or\n    /* \"#utility.yul\":1516:1556   */\n  swap3\n  pop\n    /* \"#utility.yul\":1245:1562   */\n  pop\n  pop\n    /* \"#utility.yul\":1169:1562   */\n  swap4\n  swap3\n  pop\n  pop\n  pop\n  jump\t// out\n    /* \"#utility.yul\":1568:1645   */\ntag_31:\n    /* \"#utility.yul\":1605:1612   */\n  0x00\n    /* \"#utility.yul\":1634:1639   */\n  dup2\n    /* \"#utility.yul\":1623:1639   */\n  swap1\n  pop\n    /* \"#utility.yul\":1568:1645   */\n  swap2\n  swap1\n  pop\n  jump\t// out\n    /* \"#utility.yul\":1651:1711   */\ntag_32:\n    /* \"#utility.yul\":1679:1682   */\n  0x00\n    /* \"#utility.yul\":1700:1705   */\n  dup2\n    /* \"#utility.yul\":1693:1705   */\n  swap1\n  pop\n    /* \"#utility.yul\":1651:1711   */\n  swap2\n  swap1\n  pop\n  jump\t// out\n    /* \"#utility.yul\":1717:1859   */\ntag_33:\n    /* \"#utility.yul\":1767:1776   */\n  0x00\n    /* \"#utility.yul\":1800:1853   */\n  tag_60\n    /* \"#utility.yul\":1818:1852   */\n  tag_61\n    /* \"#utility.yul\":1827:1851   */\n  tag_62\n    /* \"#utility.yul\":1845:1850   */\n  dup5\n    /* \"#utility.yul\":1827:1851   */\n  tag_31\n  jump\t// in\ntag_62:\n    /* \"#utility.yul\":1818:1852   */\n  tag_32\n  jump\t// in\ntag_61:\n    /* \"#utility.yul\":1800:1853   */\n  tag_31\n  jump\t// in\ntag_60:\n    /* \"#utility.yul\":1787:1853   */\n  swap1\n  pop\n    /* \"#utility.yul\":1717:1859   */\n  swap2\n  swap1\n  pop\n  jump\t// out\n    /* \"#utility.yul\":1865:1940   */\ntag_34:\n    /* \"#utility.yul\":1908:1911   */\n  0x00\n    /* \"#utility.yul\":1929:1934   */\n  dup2\n    /* \"#utility.yul\":1922:1934   */\n  swap1\n  pop\n    /* \"#utility.yul\":1865:1940   */\n  swap2\n  swap1\n  pop\n  jump\t// out\n    /* \"#utility.yul\":1946:2215   */\ntag_35:\n    /* \"#utility.yul\":2056:2095   */\n  tag_65\n    /* \"#utility.yul\":2087:2094   */\n  dup4\n    /* \"#utility.yul\":2056:2095   */\n  tag_33\n  jump\t// in\ntag_65:\n    /* \"#utility.yul\":2117:2208   */\n  tag_66\n    /* \"#utility.yul\":2166:2207   */\n  tag_67\n    /* \"#utility.yul\":2190:2206   */\n  dup3\n    /* \"#utility.yul\":2166:2207   */\n  tag_34\n  jump\t// in\ntag_67:\n    /* \"#utility.yul\":2158:2164   */\n  dup5\n    /* \"#utility.yul\":2151:2155   */\n  dup5\n    /* \"#utility.yul\":2145:2156   */\n  sload\n    /* \"#utility.yul\":2117:2208   */\n  tag_30\n  jump\t// in\ntag_66:\n    /* \"#utility.yul\":2111:2115   */\n  dup3\n    /* \"#utility.yul\":2104:2209   */\n  sstore\n    /* \"#utility.yul\":2022:2215   */\n  pop\n    /* \"#utility.yul\":1946:2215   */\n  pop\n  pop\n  pop\n  jump\t// out\n    /* \"#utility.yul\":2221:2294   */\ntag_36:\n    /* \"#utility.yul\":2266:2269   */\n  0x00\n    /* \"#utility.yul\":2221:2294   */\n  swap1\n  jump\t// out\n    /* \"#utility.yul\":2300:2489   */\ntag_37:\n    /* \"#utility.yul\":2377:2409   */\n  tag_70\n  tag_36\n  jump\t// in\ntag_70:\n    /* \"#utility.yul\":2418:2483   */\n  tag_71\n    /* \"#utility.yul\":2476:2482   */\n  dup2\n    /* \"#utility.yul\":2468:2474   */\n  dup5\n    /* \"#utility.yul\":2462:2466   */\n  dup5\n    /* \"#utility.yul\":2418:2483   */\n  tag_35\n  jump\t// in\ntag_71:\n    /* \"#utility.yul\":2353:2489   */\n  pop\n    /* \"#utility.yul\":2300:2489   */\n  pop\n  pop\n  jump\t// out\n    /* \"#utility.yul\":2495:2681   */\ntag_38:\n    /* \"#utility.yul\":2555:2675   */\ntag_73:\n    /* \"#utility.yul\":2572:2575   */\n  dup2\n    /* \"#utility.yul\":2565:2570   */\n  dup2\n    /* \"#utility.yul\":2562:2576   */\n  lt\n    /* \"#utility.yul\":2555:2675   */\n  iszero\n  tag_75\n  jumpi\n    /* \"#utility.yul\":2626:2665   */\n  tag_76\n    /* \"#utility.yul\":2663:2664   */\n  0x00\n    /* \"#utility.yul\":2656:2661   */\n  dup3\n    /* \"#utility.yul\":2626:2665   */\n  tag_37\n  jump\t// in\ntag_76:\n    /* \"#utility.yul\":2599:2600   */\n  0x01\n    /* \"#utility.yul\":2592:2597   */\n  dup2\n    /* \"#utility.yul\":2588:2601   */\n  add\n    /* \"#utility.yul\":2579:2601   */\n  swap1\n  pop\n    /* \"#utility.yul\":2555:2675   */\n  jump(tag_73)\ntag_75:\n    /* \"#utility.yul\":2495:2681   */\n  pop\n  pop\n  jump\t// out\n    /* \"#utility.yul\":2687:3230   */\ntag_39:\n    /* \"#utility.yul\":2788:2790   */\n  0x1f\n    /* \"#utility.yul\":2783:2786   */\n  dup3\n    /* \"#utility.yul\":2780:2791   */\n  gt\n    /* \"#utility.yul\":2777:3223   */\n  iszero\n  tag_78\n  jumpi\n    /* \"#utility.yul\":2822:2860   */\n  tag_79\n    /* \"#utility.yul\":2854:2859   */\n  dup2\n    /* \"#utility.yul\":2822:2860   */\n  tag_27\n  jump\t// in\ntag_79:\n    /* \"#utility.yul\":2906:2935   */\n  tag_80\n    /* \"#utility.yul\":2924:2934   */\n  dup5\n    /* \"#utility.yul\":2906:2935   */\n  tag_28\n  jump\t// in\ntag_80:\n    /* \"#utility.yul\":2896:2904   */\n  dup2\n    /* \"#utility.yul\":2892:2936   */\n  add\n    /* \"#utility.yul\":3089:3091   */\n  0x20\n    /* \"#utility.yul\":3077:3087   */\n  dup6\n    /* \"#utility.yul\":3074:3092   */\n  lt\n    /* \"#utility.yul\":3071:3120   */\n  iszero\n  tag_81\n  jumpi\n    /* \"#utility.yul\":3110:3118   */\n  dup2\n    /* \"#utility.yul\":3095:3118   */\n  swap1\n  pop\n    /* \"#utility.yul\":3071:3120   */\ntag_81:\n    /* \"#utility.yul\":3133:3213   */\n  tag_82\n    /* \"#utility.yul\":3189:3211   */\n  tag_83\n    /* \"#utility.yul\":3207:3210   */\n  dup6\n    /* \"#utility.yul\":3189:3211   */\n  tag_28\n  jump\t// in\ntag_83:\n    /* \"#utility.yul\":3179:3187   */\n  dup4\n    /* \"#utility.yul\":3175:3212   */\n  add\n    /* \"#utility.yul\":3162:3173   */\n  dup3\n    /* \"#utility.yul\":3133:3213   */\n  tag_38\n  jump\t// in\ntag_82:\n    /* \"#utility.yul\":2792:3223   */\n  pop\n  pop\n    /* \"#utility.yul\":2777:3223   */\ntag_78:\n    /* \"#utility.yul\":2687:3230   */\n  pop\n  pop\n  pop\n  jump\t// out\n    /* \"#utility.yul\":3236:3353   */\ntag_40:\n    /* \"#utility.yul\":3290:3298   */\n  0x00\n    /* \"#utility.yul\":3340:3345   */\n  dup3\n    /* \"#utility.yul\":3334:3338   */\n  dup3\n    /* \"#utility.yul\":3330:3346   */\n  shr\n    /* \"#utility.yul\":3309:3346   */\n  swap1\n  pop\n    /* \"#utility.yul\":3236:3353   */\n  swap3\n  swap2\n  pop\n  pop\n  jump\t// out\n    /* \"#utility.yul\":3359:3528   */\ntag_41:\n    /* \"#utility.yul\":3403:3409   */\n  0x00\n    /* \"#utility.yul\":3436:3487   */\n  tag_86\n    /* \"#utility.yul\":3484:3485   */\n  0x00\n    /* \"#utility.yul\":3480:3486   */\n  not\n    /* \"#utility.yul\":3472:3477   */\n  dup5\n    /* \"#utility.yul\":3469:3470   */\n  0x08\n    /* \"#utility.yul\":3465:3478   */\n  mul\n    /* \"#utility.yul\":3436:3487   */\n  tag_40\n  jump\t// in\ntag_86:\n    /* \"#utility.yul\":3432:3488   */\n  not\n    /* \"#utility.yul\":3517:3521   */\n  dup1\n    /* \"#utility.yul\":3511:3515   */\n  dup4\n    /* \"#utility.yul\":3507:3522   */\n  and\n    /* \"#utility.yul\":3497:3522   */\n  swap2\n  pop\n    /* \"#utility.yul\":3410:3528   */\n  pop\n    /* \"#utility.yul\":3359:3528   */\n  swap3\n  swap2\n  pop\n  pop\n  jump\t// out\n    /* \"#utility.yul\":3533:3828   */\ntag_42:\n    /* \"#utility.yul\":3609:3613   */\n  0x00\n    /* \"#utility.yul\":3755:3784   */\n  tag_88\n    /* \"#utility.yul\":3780:3783   */\n  dup4\n    /* \"#utility.yul\":3774:3778   */\n  dup4\n    /* \"#utility.yul\":3755:3784   */\n  tag_41\n  jump\t// in\ntag_88:\n    /* \"#utility.yul\":3747:3784   */\n  swap2\n  pop\n    /* \"#utility.yul\":3817:3820   */\n  dup3\n    /* \"#utility.yul\":3814:3815   */\n  0x02\n    /* \"#utility.yul\":3810:3821   */\n  mul\n    /* \"#utility.yul\":3804:3808   */\n  dup3\n    /* \"#utility.yul\":3801:3822   */\n  or\n    /* \"#utility.yul\":3793:3822   */\n  swap1\n  pop\n    /* \"#utility.yul\":3533:3828   */\n  swap3\n  swap2\n  pop\n  pop\n  jump\t// out\n    /* \"#utility.yul\":3833:5228   */\ntag_9:\n    /* \"#utility.yul\":3950:3987   */\n  tag_90\n    /* \"#utility.yul\":3983:3986   */\n  dup3\n    /* \"#utility.yul\":3950:3987   */\n  tag_24\n  jump\t// in\ntag_90:\n    /* \"#utility.yul\":4052:4070   */\n  0xffffffffffffffff\n    /* \"#utility.yul\":4044:4050   */\n  dup2\n    /* \"#utility.yul\":4041:4071   */\n  gt\n    /* \"#utility.yul\":4038:4094   */\n  iszero\n  tag_91\n  jumpi\n    /* \"#utility.yul\":4074:4092   */\n  tag_92\n  tag_25\n  jump\t// in\ntag_92:\n    /* \"#utility.yul\":4038:4094   */\ntag_91:\n    /* \"#utility.yul\":4118:4156   */\n  tag_93\n    /* \"#utility.yul\":4150:4154   */\n  dup3\n    /* \"#utility.yul\":4144:4155   */\n  sload\n    /* \"#utility.yul\":4118:4156   */\n  tag_17\n  jump\t// in\ntag_93:\n    /* \"#utility.yul\":4203:4270   */\n  tag_94\n    /* \"#utility.yul\":4263:4269   */\n  dup3\n    /* \"#utility.yul\":4255:4261   */\n  dup3\n    /* \"#utility.yul\":4249:4253   */\n  dup6\n    /* \"#utility.yul\":4203:4270   */\n  tag_39\n  jump\t// in\ntag_94:\n    /* \"#utility.yul\":4297:4298   */\n  0x00\n    /* \"#utility.yul\":4321:4325   */\n  0x20\n    /* \"#utility.yul\":4308:4325   */\n  swap1\n  pop\n    /* \"#utility.yul\":4353:4355   */\n  0x1f\n    /* \"#utility.yul\":4345:4351   */\n  dup4\n    /* \"#utility.yul\":4342:4356   */\n  gt\n    /* \"#utility.yul\":4370:4371   */\n  0x01\n    /* \"#utility.yul\":4365:4983   */\n  dup2\n  eq\n  tag_96\n  jumpi\n    /* \"#utility.yul\":5027:5028   */\n  0x00\n    /* \"#utility.yul\":5044:5050   */\n  dup5\n    /* \"#utility.yul\":5041:5118   */\n  iszero\n  tag_97\n  jumpi\n    /* \"#utility.yul\":5093:5102   */\n  dup3\n    /* \"#utility.yul\":5088:5091   */\n  dup8\n    /* \"#utility.yul\":5084:5103   */\n  add\n    /* \"#utility.yul\":5078:5104   */\n  mload\n    /* \"#utility.yul\":5069:5104   */\n  swap1\n  pop\n    /* \"#utility.yul\":5041:5118   */\ntag_97:\n    /* \"#utility.yul\":5144:5211   */\n  tag_98\n    /* \"#utility.yul\":5204:5210   */\n  dup6\n    /* \"#utility.yul\":5197:5202   */\n  dup3\n    /* \"#utility.yul\":5144:5211   */\n  tag_42\n  jump\t// in\ntag_98:\n    /* \"#utility.yul\":5138:5142   */\n  dup7\n    /* \"#utility.yul\":5131:5212   */\n  sstore\n    /* \"#utility.yul\":5000:5222   */\n  pop\n    /* \"#utility.yul\":4335:5222   */\n  jump(tag_95)\n    /* \"#utility.yul\":4365:4983   */\ntag_96:\n    /* \"#utility.yul\":4417:4421   */\n  0x1f\n    /* \"#utility.yul\":4413:4422   */\n  not\n    /* \"#utility.yul\":4405:4411   */\n  dup5\n    /* \"#utility.yul\":4401:4423   */\n  and\n    /* \"#utility.yul\":4451:4488   */\n  tag_99\n    /* \"#utility.yul\":4483:4487   */\n  dup7\n    /* \"#utility.yul\":4451:4488   */\n  tag_27\n  jump\t// in\ntag_99:\n    /* \"#utility.yul\":4510:4511   */\n  0x00\n    /* \"#utility.yul\":4524:4732   */\ntag_100:\n    /* \"#utility.yul\":4538:4545   */\n  dup3\n    /* \"#utility.yul\":4535:4536   */\n  dup2\n    /* \"#utility.yul\":4532:4546   */\n  lt\n    /* \"#utility.yul\":4524:4732   */\n  iszero\n  tag_102\n  jumpi\n    /* \"#utility.yul\":4617:4626   */\n  dup5\n    /* \"#utility.yul\":4612:4615   */\n  dup10\n    /* \"#utility.yul\":4608:4627   */\n  add\n    /* \"#utility.yul\":4602:4628   */\n  mload\n    /* \"#utility.yul\":4594:4600   */\n  dup3\n    /* \"#utility.yul\":4587:4629   */\n  sstore\n    /* \"#utility.yul\":4668:4669   */\n  0x01\n    /* \"#utility.yul\":4660:4666   */\n  dup3\n    /* \"#utility.yul\":4656:4670   */\n  add\n    /* \"#utility.yul\":4646:4670   */\n  swap2\n  pop\n    /* \"#utility.yul\":4715:4717   */\n  0x20\n    /* \"#utility.yul\":4704:4713   */\n  dup6\n    /* \"#utility.yul\":4700:4718   */\n  add\n    /* \"#utility.yul\":4687:4718   */\n  swap5\n  pop\n    /* \"#utility.yul\":4561:4565   */\n  0x20\n    /* \"#utility.yul\":4558:4559   */\n  dup2\n    /* \"#utility.yul\":4554:4566   */\n  add\n    /* \"#utility.yul\":4549:4566   */\n  swap1\n  pop\n    /* \"#utility.yul\":4524:4732   */\n  jump(tag_100)\ntag_102:\n    /* \"#utility.yul\":4760:4766   */\n  dup7\n    /* \"#utility.yul\":4751:4758   */\n  dup4\n    /* \"#utility.yul\":4748:4767   */\n  lt\n    /* \"#utility.yul\":4745:4924   */\n  iszero\n  tag_103\n  jumpi\n    /* \"#utility.yul\":4818:4827   */\n  dup5\n    /* \"#utility.yul\":4813:4816   */\n  dup10\n    /* \"#utility.yul\":4809:4828   */\n  add\n    /* \"#utility.yul\":4803:4829   */\n  mload\n    /* \"#utility.yul\":4861:4909   */\n  tag_104\n    /* \"#utility.yul\":4903:4907   */\n  0x1f\n    /* \"#utility.yul\":4895:4901   */\n  dup10\n    /* \"#utility.yul\":4891:4908   */\n  and\n    /* \"#utility.yul\":4880:4889   */\n  dup3\n    /* \"#utility.yul\":4861:4909   */\n  tag_41\n  jump\t// in\ntag_104:\n    /* \"#utility.yul\":4853:4859   */\n  dup4\n    /* \"#utility.yul\":4846:4910   */\n  sstore\n    /* \"#utility.yul\":4768:4924   */\n  pop\n    /* \"#utility.yul\":4745:4924   */\ntag_103:\n    /* \"#utility.yul\":4970:4971   */\n  0x01\n    /* \"#utility.yul\":4966:4967   */\n  0x02\n    /* \"#utility.yul\":4958:4964   */\n  dup9\n    /* \"#utility.yul\":4954:4968   */\n  mul\n    /* \"#utility.yul\":4950:4972   */\n  add\n    /* \"#utility.yul\":4944:4948   */\n  dup9\n    /* \"#utility.yul\":4937:4973   */\n  sstore\n    /* \"#utility.yul\":4372:4983   */\n  pop\n  pop\n  pop\n    /* \"#utility.yul\":4335:5222   */\ntag_95:\n  pop\n    /* \"#utility.yul\":3925:5228   */\n  pop\n  pop\n  pop\n    /* \"#utility.yul\":3833:5228   */\n  pop\n  pop\n  jump\t// out\n    /* \"Bloque 2 Remix/Users.sol\":64:925  contract Users{... */\ntag_4:\n  dataSize(sub_0)\n  dup1\n  dataOffset(sub_0)\n  0x00\n  codecopy\n  0x00\n  return\nstop\n\nsub_0: assembly {\n        /* \"Bloque 2 Remix/Users.sol\":64:925  contract Users{... */\n      mstore(0x40, 0x80)\n      callvalue\n      dup1\n      iszero\n      tag_1\n      jumpi\n      0x00\n      dup1\n      revert\n    tag_1:\n      pop\n      jumpi(tag_2, lt(calldatasize, 0x04))\n      shr(0xe0, calldataload(0x00))\n      dup1\n      0x365b98b2\n      eq\n      tag_3\n      jumpi\n      dup1\n      0x8b7afd1e\n      eq\n      tag_4\n      jumpi\n    tag_2:\n      0x00\n      dup1\n      revert\n        /* \"Bloque 2 Remix/Users.sol\":105:186  string[] public users = [\"admin\", \"John12\", \"Manolete77\", \"gcuellar\", \"Carlos23\"] */\n    tag_3:\n      tag_5\n      0x04\n      dup1\n      calldatasize\n      sub\n      dup2\n      add\n      swap1\n      tag_6\n      swap2\n      swap1\n      tag_7\n      jump\t// in\n    tag_6:\n      tag_8\n      jump\t// in\n    tag_5:\n      mload(0x40)\n      tag_9\n      swap2\n      swap1\n      tag_10\n      jump\t// in\n    tag_9:\n      mload(0x40)\n      dup1\n      swap2\n      sub\n      swap1\n      return\n        /* \"Bloque 2 Remix/Users.sol\":481:890  function insert1(string memory user_) public short(user_) returns(string memory){... */\n    tag_4:\n      tag_11\n      0x04\n      dup1\n      calldatasize\n      sub\n      dup2\n      add\n      swap1\n      tag_12\n      swap2\n      swap1\n      tag_13\n      jump\t// in\n    tag_12:\n      tag_14\n      jump\t// in\n    tag_11:\n      mload(0x40)\n      tag_15\n      swap2\n      swap1\n      tag_10\n      jump\t// in\n    tag_15:\n      mload(0x40)\n      dup1\n      swap2\n      sub\n      swap1\n      return\n        /* \"Bloque 2 Remix/Users.sol\":105:186  string[] public users = [\"admin\", \"John12\", \"Manolete77\", \"gcuellar\", \"Carlos23\"] */\n    tag_8:\n      0x00\n      dup2\n      dup2\n      sload\n      dup2\n      lt\n      tag_16\n      jumpi\n      0x00\n      dup1\n      revert\n    tag_16:\n      swap1\n      0x00\n      mstore\n      keccak256(0x00, 0x20)\n      add\n      0x00\n      swap2\n      pop\n      swap1\n      pop\n      dup1\n      sload\n      tag_18\n      swap1\n      tag_19\n      jump\t// in\n    tag_18:\n      dup1\n      0x1f\n      add\n      0x20\n      dup1\n      swap2\n      div\n      mul\n      0x20\n      add\n      mload(0x40)\n      swap1\n      dup2\n      add\n      0x40\n      mstore\n      dup1\n      swap3\n      swap2\n      swap1\n      dup2\n      dup2\n      mstore\n      0x20\n      add\n      dup3\n      dup1\n      sload\n      tag_20\n      swap1\n      tag_19\n      jump\t// in\n    tag_20:\n      dup1\n      iszero\n      tag_21\n      jumpi\n      dup1\n      0x1f\n      lt\n      tag_22\n      jumpi\n      0x0100\n      dup1\n      dup4\n      sload\n      div\n      mul\n      dup4\n      mstore\n      swap2\n      0x20\n      add\n      swap2\n      jump(tag_21)\n    tag_22:\n      dup3\n      add\n      swap2\n      swap1\n      0x00\n      mstore\n      keccak256(0x00, 0x20)\n      swap1\n    tag_23:\n      dup2\n      sload\n      dup2\n      mstore\n      swap1\n      0x01\n      add\n      swap1\n      0x20\n      add\n      dup1\n      dup4\n      gt\n      tag_23\n      jumpi\n      dup3\n      swap1\n      sub\n      0x1f\n      and\n      dup3\n      add\n      swap2\n    tag_21:\n      pop\n      pop\n      pop\n      pop\n      pop\n      dup2\n      jump\t// out\n        /* \"Bloque 2 Remix/Users.sol\":481:890  function insert1(string memory user_) public short(user_) returns(string memory){... */\n    tag_14:\n        /* \"Bloque 2 Remix/Users.sol\":547:560  string memory */\n      0x60\n        /* \"Bloque 2 Remix/Users.sol\":532:537  user_ */\n      dup2\n        /* \"Bloque 2 Remix/Users.sol\":325:326  3 */\n      0x03\n        /* \"Bloque 2 Remix/Users.sol\":309:314  user_ */\n      dup2\n        /* \"Bloque 2 Remix/Users.sol\":303:322  bytes(user_).length */\n      mload\n        /* \"Bloque 2 Remix/Users.sol\":303:326  bytes(user_).length > 3 */\n      gt\n        /* \"Bloque 2 Remix/Users.sol\":295:361  require(bytes(user_).length > 3, \"El usuario es demasiado corto.\") */\n      tag_25\n      jumpi\n      mload(0x40)\n      0x08c379a000000000000000000000000000000000000000000000000000000000\n      dup2\n      mstore\n      0x04\n      add\n      tag_26\n      swap1\n      tag_27\n      jump\t// in\n    tag_26:\n      mload(0x40)\n      dup1\n      swap2\n      sub\n      swap1\n      revert\n    tag_25:\n        /* \"Bloque 2 Remix/Users.sol\":576:582  uint i */\n      0x00\n        /* \"Bloque 2 Remix/Users.sol\":572:812  for(uint i = 0; i < users.length; i++){... */\n    tag_29:\n        /* \"Bloque 2 Remix/Users.sol\":592:597  users */\n      0x00\n        /* \"Bloque 2 Remix/Users.sol\":592:604  users.length */\n      dup1\n      sload\n      swap1\n      pop\n        /* \"Bloque 2 Remix/Users.sol\":588:589  i */\n      dup2\n        /* \"Bloque 2 Remix/Users.sol\":588:604  i < users.length */\n      lt\n        /* \"Bloque 2 Remix/Users.sol\":572:812  for(uint i = 0; i < users.length; i++){... */\n      iszero\n      tag_30\n      jumpi\n        /* \"Bloque 2 Remix/Users.sol\":696:701  user_ */\n      dup4\n        /* \"Bloque 2 Remix/Users.sol\":679:702  abi.encodePacked(user_) */\n      add(0x20, mload(0x40))\n      tag_32\n      swap2\n      swap1\n      tag_33\n      jump\t// in\n    tag_32:\n      mload(0x40)\n      0x20\n      dup2\n      dup4\n      sub\n      sub\n      dup2\n      mstore\n      swap1\n      0x40\n      mstore\n        /* \"Bloque 2 Remix/Users.sol\":669:703  keccak256(abi.encodePacked(user_)) */\n      dup1\n      mload\n      swap1\n      0x20\n      add\n      keccak256\n        /* \"Bloque 2 Remix/Users.sol\":655:660  users */\n      0x00\n        /* \"Bloque 2 Remix/Users.sol\":661:662  i */\n      dup3\n        /* \"Bloque 2 Remix/Users.sol\":655:663  users[i] */\n      dup2\n      sload\n      dup2\n      lt\n      tag_34\n      jumpi\n      tag_35\n      tag_36\n      jump\t// in\n    tag_35:\n    tag_34:\n      swap1\n      0x00\n      mstore\n      keccak256(0x00, 0x20)\n      add\n        /* \"Bloque 2 Remix/Users.sol\":638:664  abi.encodePacked(users[i]) */\n      add(0x20, mload(0x40))\n      tag_38\n      swap2\n      swap1\n      tag_39\n      jump\t// in\n    tag_38:\n      mload(0x40)\n      0x20\n      dup2\n      dup4\n      sub\n      sub\n      dup2\n      mstore\n      swap1\n      0x40\n      mstore\n        /* \"Bloque 2 Remix/Users.sol\":628:665  keccak256(abi.encodePacked(users[i])) */\n      dup1\n      mload\n      swap1\n      0x20\n      add\n      keccak256\n        /* \"Bloque 2 Remix/Users.sol\":628:703  keccak256(abi.encodePacked(users[i])) == keccak256(abi.encodePacked(user_)) */\n      sub\n        /* \"Bloque 2 Remix/Users.sol\":625:795  if(keccak256(abi.encodePacked(users[i])) == keccak256(abi.encodePacked(user_))){... */\n      tag_40\n      jumpi\n        /* \"Bloque 2 Remix/Users.sol\":723:779  return \"El usuario ya existe, por favor introduce otro.\" */\n      mload(0x40)\n      dup1\n      0x60\n      add\n      0x40\n      mstore\n      dup1\n      0x2f\n      dup2\n      mstore\n      0x20\n      add\n      data_072c53312eeb639095c53d8148772637b913c614cafb78459cfe57edbc6bcf57\n      0x2f\n      swap2\n      codecopy\n      swap3\n      pop\n      pop\n      jump(tag_28)\n        /* \"Bloque 2 Remix/Users.sol\":625:795  if(keccak256(abi.encodePacked(users[i])) == keccak256(abi.encodePacked(user_))){... */\n    tag_40:\n        /* \"Bloque 2 Remix/Users.sol\":606:609  i++ */\n      dup1\n      dup1\n      0x01\n      add\n      swap2\n      pop\n      pop\n        /* \"Bloque 2 Remix/Users.sol\":572:812  for(uint i = 0; i < users.length; i++){... */\n      jump(tag_29)\n    tag_30:\n      pop\n        /* \"Bloque 2 Remix/Users.sol\":822:827  users */\n      0x00\n        /* \"Bloque 2 Remix/Users.sol\":833:838  user_ */\n      dup4\n        /* \"Bloque 2 Remix/Users.sol\":822:839  users.push(user_) */\n      swap1\n      dup1\n      0x01\n      dup2\n      sload\n      add\n      dup1\n      dup3\n      sstore\n      dup1\n      swap2\n      pop\n      pop\n      0x01\n      swap1\n      sub\n      swap1\n      0x00\n      mstore\n      keccak256(0x00, 0x20)\n      add\n      0x00\n      swap1\n      swap2\n      swap1\n      swap2\n      swap1\n      swap2\n      pop\n      swap1\n      dup2\n      tag_42\n      swap2\n      swap1\n      tag_43\n      jump\t// in\n    tag_42:\n      pop\n        /* \"Bloque 2 Remix/Users.sol\":850:882  return \"Nuevo usuario aceptado.\" */\n      mload(0x40)\n      dup1\n      0x40\n      add\n      0x40\n      mstore\n      dup1\n      0x17\n      dup2\n      mstore\n      0x20\n      add\n      0x4e7565766f207573756172696f20616365707461646f2e000000000000000000\n      dup2\n      mstore\n      pop\n      swap2\n      pop\n        /* \"Bloque 2 Remix/Users.sol\":372:373  _ */\n    tag_28:\n        /* \"Bloque 2 Remix/Users.sol\":481:890  function insert1(string memory user_) public short(user_) returns(string memory){... */\n      pop\n      swap2\n      swap1\n      pop\n      jump\t// out\n        /* \"#utility.yul\":7:82   */\n    tag_44:\n        /* \"#utility.yul\":40:46   */\n      0x00\n        /* \"#utility.yul\":73:75   */\n      0x40\n        /* \"#utility.yul\":67:76   */\n      mload\n        /* \"#utility.yul\":57:76   */\n      swap1\n      pop\n        /* \"#utility.yul\":7:82   */\n      swap1\n      jump\t// out\n        /* \"#utility.yul\":88:205   */\n    tag_45:\n        /* \"#utility.yul\":197:198   */\n      0x00\n        /* \"#utility.yul\":194:195   */\n      dup1\n        /* \"#utility.yul\":187:199   */\n      revert\n        /* \"#utility.yul\":211:328   */\n    tag_46:\n        /* \"#utility.yul\":320:321   */\n      0x00\n        /* \"#utility.yul\":317:318   */\n      dup1\n        /* \"#utility.yul\":310:322   */\n      revert\n        /* \"#utility.yul\":334:411   */\n    tag_47:\n        /* \"#utility.yul\":371:378   */\n      0x00\n        /* \"#utility.yul\":400:405   */\n      dup2\n        /* \"#utility.yul\":389:405   */\n      swap1\n      pop\n        /* \"#utility.yul\":334:411   */\n      swap2\n      swap1\n      pop\n      jump\t// out\n        /* \"#utility.yul\":417:539   */\n    tag_48:\n        /* \"#utility.yul\":490:514   */\n      tag_91\n        /* \"#utility.yul\":508:513   */\n      dup2\n        /* \"#utility.yul\":490:514   */\n      tag_47\n      jump\t// in\n    tag_91:\n        /* \"#utility.yul\":483:488   */\n      dup2\n        /* \"#utility.yul\":480:515   */\n      eq\n        /* \"#utility.yul\":470:533   */\n      tag_92\n      jumpi\n        /* \"#utility.yul\":529:530   */\n      0x00\n        /* \"#utility.yul\":526:527   */\n      dup1\n        /* \"#utility.yul\":519:531   */\n      revert\n        /* \"#utility.yul\":470:533   */\n    tag_92:\n        /* \"#utility.yul\":417:539   */\n      pop\n      jump\t// out\n        /* \"#utility.yul\":545:684   */\n    tag_49:\n        /* \"#utility.yul\":591:596   */\n      0x00\n        /* \"#utility.yul\":629:635   */\n      dup2\n        /* \"#utility.yul\":616:636   */\n      calldataload\n        /* \"#utility.yul\":607:636   */\n      swap1\n      pop\n        /* \"#utility.yul\":645:678   */\n      tag_94\n        /* \"#utility.yul\":672:677   */\n      dup2\n        /* \"#utility.yul\":645:678   */\n      tag_48\n      jump\t// in\n    tag_94:\n        /* \"#utility.yul\":545:684   */\n      swap3\n      swap2\n      pop\n      pop\n      jump\t// out\n        /* \"#utility.yul\":690:1019   */\n    tag_7:\n        /* \"#utility.yul\":749:755   */\n      0x00\n        /* \"#utility.yul\":798:800   */\n      0x20\n        /* \"#utility.yul\":786:795   */\n      dup3\n        /* \"#utility.yul\":777:784   */\n      dup5\n        /* \"#utility.yul\":773:796   */\n      sub\n        /* \"#utility.yul\":769:801   */\n      slt\n        /* \"#utility.yul\":766:885   */\n      iszero\n      tag_96\n      jumpi\n        /* \"#utility.yul\":804:883   */\n      tag_97\n      tag_45\n      jump\t// in\n    tag_97:\n        /* \"#utility.yul\":766:885   */\n    tag_96:\n        /* \"#utility.yul\":924:925   */\n      0x00\n        /* \"#utility.yul\":949:1002   */\n      tag_98\n        /* \"#utility.yul\":994:1001   */\n      dup5\n        /* \"#utility.yul\":985:991   */\n      dup3\n        /* \"#utility.yul\":974:983   */\n      dup6\n        /* \"#utility.yul\":970:992   */\n      add\n        /* \"#utility.yul\":949:1002   */\n      tag_49\n      jump\t// in\n    tag_98:\n        /* \"#utility.yul\":939:1002   */\n      swap2\n      pop\n        /* \"#utility.yul\":895:1012   */\n      pop\n        /* \"#utility.yul\":690:1019   */\n      swap3\n      swap2\n      pop\n      pop\n      jump\t// out\n        /* \"#utility.yul\":1025:1124   */\n    tag_50:\n        /* \"#utility.yul\":1077:1083   */\n      0x00\n        /* \"#utility.yul\":1111:1116   */\n      dup2\n        /* \"#utility.yul\":1105:1117   */\n      mload\n        /* \"#utility.yul\":1095:1117   */\n      swap1\n      pop\n        /* \"#utility.yul\":1025:1124   */\n      swap2\n      swap1\n      pop\n      jump\t// out\n        /* \"#utility.yul\":1130:1299   */\n    tag_51:\n        /* \"#utility.yul\":1214:1225   */\n      0x00\n        /* \"#utility.yul\":1248:1254   */\n      dup3\n        /* \"#utility.yul\":1243:1246   */\n      dup3\n        /* \"#utility.yul\":1236:1255   */\n      mstore\n        /* \"#utility.yul\":1288:1292   */\n      0x20\n        /* \"#utility.yul\":1283:1286   */\n      dup3\n        /* \"#utility.yul\":1279:1293   */\n      add\n        /* \"#utility.yul\":1264:1293   */\n      swap1\n      pop\n        /* \"#utility.yul\":1130:1299   */\n      swap3\n      swap2\n      pop\n      pop\n      jump\t// out\n        /* \"#utility.yul\":1305:1551   */\n    tag_52:\n        /* \"#utility.yul\":1386:1387   */\n      0x00\n        /* \"#utility.yul\":1396:1509   */\n    tag_102:\n        /* \"#utility.yul\":1410:1416   */\n      dup4\n        /* \"#utility.yul\":1407:1408   */\n      dup2\n        /* \"#utility.yul\":1404:1417   */\n      lt\n        /* \"#utility.yul\":1396:1509   */\n      iszero\n      tag_104\n      jumpi\n        /* \"#utility.yul\":1495:1496   */\n      dup1\n        /* \"#utility.yul\":1490:1493   */\n      dup3\n        /* \"#utility.yul\":1486:1497   */\n      add\n        /* \"#utility.yul\":1480:1498   */\n      mload\n        /* \"#utility.yul\":1476:1477   */\n      dup2\n        /* \"#utility.yul\":1471:1474   */\n      dup5\n        /* \"#utility.yul\":1467:1478   */\n      add\n        /* \"#utility.yul\":1460:1499   */\n      mstore\n        /* \"#utility.yul\":1432:1434   */\n      0x20\n        /* \"#utility.yul\":1429:1430   */\n      dup2\n        /* \"#utility.yul\":1425:1435   */\n      add\n        /* \"#utility.yul\":1420:1435   */\n      swap1\n      pop\n        /* \"#utility.yul\":1396:1509   */\n      jump(tag_102)\n    tag_104:\n        /* \"#utility.yul\":1543:1544   */\n      0x00\n        /* \"#utility.yul\":1534:1540   */\n      dup5\n        /* \"#utility.yul\":1529:1532   */\n      dup5\n        /* \"#utility.yul\":1525:1541   */\n      add\n        /* \"#utility.yul\":1518:1545   */\n      mstore\n        /* \"#utility.yul\":1367:1551   */\n      pop\n        /* \"#utility.yul\":1305:1551   */\n      pop\n      pop\n      pop\n      jump\t// out\n        /* \"#utility.yul\":1557:1659   */\n    tag_53:\n        /* \"#utility.yul\":1598:1604   */\n      0x00\n        /* \"#utility.yul\":1649:1651   */\n      0x1f\n        /* \"#utility.yul\":1645:1652   */\n      not\n        /* \"#utility.yul\":1640:1642   */\n      0x1f\n        /* \"#utility.yul\":1633:1638   */\n      dup4\n        /* \"#utility.yul\":1629:1643   */\n      add\n        /* \"#utility.yul\":1625:1653   */\n      and\n        /* \"#utility.yul\":1615:1653   */\n      swap1\n      pop\n        /* \"#utility.yul\":1557:1659   */\n      swap2\n      swap1\n      pop\n      jump\t// out\n        /* \"#utility.yul\":1665:2042   */\n    tag_54:\n        /* \"#utility.yul\":1753:1756   */\n      0x00\n        /* \"#utility.yul\":1781:1820   */\n      tag_107\n        /* \"#utility.yul\":1814:1819   */\n      dup3\n        /* \"#utility.yul\":1781:1820   */\n      tag_50\n      jump\t// in\n    tag_107:\n        /* \"#utility.yul\":1836:1907   */\n      tag_108\n        /* \"#utility.yul\":1900:1906   */\n      dup2\n        /* \"#utility.yul\":1895:1898   */\n      dup6\n        /* \"#utility.yul\":1836:1907   */\n      tag_51\n      jump\t// in\n    tag_108:\n        /* \"#utility.yul\":1829:1907   */\n      swap4\n      pop\n        /* \"#utility.yul\":1916:1981   */\n      tag_109\n        /* \"#utility.yul\":1974:1980   */\n      dup2\n        /* \"#utility.yul\":1969:1972   */\n      dup6\n        /* \"#utility.yul\":1962:1966   */\n      0x20\n        /* \"#utility.yul\":1955:1960   */\n      dup7\n        /* \"#utility.yul\":1951:1967   */\n      add\n        /* \"#utility.yul\":1916:1981   */\n      tag_52\n      jump\t// in\n    tag_109:\n        /* \"#utility.yul\":2006:2035   */\n      tag_110\n        /* \"#utility.yul\":2028:2034   */\n      dup2\n        /* \"#utility.yul\":2006:2035   */\n      tag_53\n      jump\t// in\n    tag_110:\n        /* \"#utility.yul\":2001:2004   */\n      dup5\n        /* \"#utility.yul\":1997:2036   */\n      add\n        /* \"#utility.yul\":1990:2036   */\n      swap2\n      pop\n        /* \"#utility.yul\":1757:2042   */\n      pop\n        /* \"#utility.yul\":1665:2042   */\n      swap3\n      swap2\n      pop\n      pop\n      jump\t// out\n        /* \"#utility.yul\":2048:2361   */\n    tag_10:\n        /* \"#utility.yul\":2161:2165   */\n      0x00\n        /* \"#utility.yul\":2199:2201   */\n      0x20\n        /* \"#utility.yul\":2188:2197   */\n      dup3\n        /* \"#utility.yul\":2184:2202   */\n      add\n        /* \"#utility.yul\":2176:2202   */\n      swap1\n      pop\n        /* \"#utility.yul\":2248:2257   */\n      dup2\n        /* \"#utility.yul\":2242:2246   */\n      dup2\n        /* \"#utility.yul\":2238:2258   */\n      sub\n        /* \"#utility.yul\":2234:2235   */\n      0x00\n        /* \"#utility.yul\":2223:2232   */\n      dup4\n        /* \"#utility.yul\":2219:2236   */\n      add\n        /* \"#utility.yul\":2212:2259   */\n      mstore\n        /* \"#utility.yul\":2276:2354   */\n      tag_112\n        /* \"#utility.yul\":2349:2353   */\n      dup2\n        /* \"#utility.yul\":2340:2346   */\n      dup5\n        /* \"#utility.yul\":2276:2354   */\n      tag_54\n      jump\t// in\n    tag_112:\n        /* \"#utility.yul\":2268:2354   */\n      swap1\n      pop\n        /* \"#utility.yul\":2048:2361   */\n      swap3\n      swap2\n      pop\n      pop\n      jump\t// out\n        /* \"#utility.yul\":2367:2484   */\n    tag_55:\n        /* \"#utility.yul\":2476:2477   */\n      0x00\n        /* \"#utility.yul\":2473:2474   */\n      dup1\n        /* \"#utility.yul\":2466:2478   */\n      revert\n        /* \"#utility.yul\":2490:2607   */\n    tag_56:\n        /* \"#utility.yul\":2599:2600   */\n      0x00\n        /* \"#utility.yul\":2596:2597   */\n      dup1\n        /* \"#utility.yul\":2589:2601   */\n      revert\n        /* \"#utility.yul\":2613:2793   */\n    tag_57:\n        /* \"#utility.yul\":2661:2738   */\n      0x4e487b7100000000000000000000000000000000000000000000000000000000\n        /* \"#utility.yul\":2658:2659   */\n      0x00\n        /* \"#utility.yul\":2651:2739   */\n      mstore\n        /* \"#utility.yul\":2758:2762   */\n      0x41\n        /* \"#utility.yul\":2755:2756   */\n      0x04\n        /* \"#utility.yul\":2748:2763   */\n      mstore\n        /* \"#utility.yul\":2782:2786   */\n      0x24\n        /* \"#utility.yul\":2779:2780   */\n      0x00\n        /* \"#utility.yul\":2772:2787   */\n      revert\n        /* \"#utility.yul\":2799:3080   */\n    tag_58:\n        /* \"#utility.yul\":2882:2909   */\n      tag_117\n        /* \"#utility.yul\":2904:2908   */\n      dup3\n        /* \"#utility.yul\":2882:2909   */\n      tag_53\n      jump\t// in\n    tag_117:\n        /* \"#utility.yul\":2874:2880   */\n      dup2\n        /* \"#utility.yul\":2870:2910   */\n      add\n        /* \"#utility.yul\":3012:3018   */\n      dup2\n        /* \"#utility.yul\":3000:3010   */\n      dup2\n        /* \"#utility.yul\":2997:3019   */\n      lt\n        /* \"#utility.yul\":2976:2994   */\n      0xffffffffffffffff\n        /* \"#utility.yul\":2964:2974   */\n      dup3\n        /* \"#utility.yul\":2961:2995   */\n      gt\n        /* \"#utility.yul\":2958:3020   */\n      or\n        /* \"#utility.yul\":2955:3043   */\n      iszero\n      tag_118\n      jumpi\n        /* \"#utility.yul\":3023:3041   */\n      tag_119\n      tag_57\n      jump\t// in\n    tag_119:\n        /* \"#utility.yul\":2955:3043   */\n    tag_118:\n        /* \"#utility.yul\":3063:3073   */\n      dup1\n        /* \"#utility.yul\":3059:3061   */\n      0x40\n        /* \"#utility.yul\":3052:3074   */\n      mstore\n        /* \"#utility.yul\":2842:3080   */\n      pop\n        /* \"#utility.yul\":2799:3080   */\n      pop\n      pop\n      jump\t// out\n        /* \"#utility.yul\":3086:3215   */\n    tag_59:\n        /* \"#utility.yul\":3120:3126   */\n      0x00\n        /* \"#utility.yul\":3147:3167   */\n      tag_121\n      tag_44\n      jump\t// in\n    tag_121:\n        /* \"#utility.yul\":3137:3167   */\n      swap1\n      pop\n        /* \"#utility.yul\":3176:3209   */\n      tag_122\n        /* \"#utility.yul\":3204:3208   */\n      dup3\n        /* \"#utility.yul\":3196:3202   */\n      dup3\n        /* \"#utility.yul\":3176:3209   */\n      tag_58\n      jump\t// in\n    tag_122:\n        /* \"#utility.yul\":3086:3215   */\n      swap2\n      swap1\n      pop\n      jump\t// out\n        /* \"#utility.yul\":3221:3529   */\n    tag_60:\n        /* \"#utility.yul\":3283:3287   */\n      0x00\n        /* \"#utility.yul\":3373:3391   */\n      0xffffffffffffffff\n        /* \"#utility.yul\":3365:3371   */\n      dup3\n        /* \"#utility.yul\":3362:3392   */\n      gt\n        /* \"#utility.yul\":3359:3415   */\n      iszero\n      tag_124\n      jumpi\n        /* \"#utility.yul\":3395:3413   */\n      tag_125\n      tag_57\n      jump\t// in\n    tag_125:\n        /* \"#utility.yul\":3359:3415   */\n    tag_124:\n        /* \"#utility.yul\":3433:3462   */\n      tag_126\n        /* \"#utility.yul\":3455:3461   */\n      dup3\n        /* \"#utility.yul\":3433:3462   */\n      tag_53\n      jump\t// in\n    tag_126:\n        /* \"#utility.yul\":3425:3462   */\n      swap1\n      pop\n        /* \"#utility.yul\":3517:3521   */\n      0x20\n        /* \"#utility.yul\":3511:3515   */\n      dup2\n        /* \"#utility.yul\":3507:3522   */\n      add\n        /* \"#utility.yul\":3499:3522   */\n      swap1\n      pop\n        /* \"#utility.yul\":3221:3529   */\n      swap2\n      swap1\n      pop\n      jump\t// out\n        /* \"#utility.yul\":3535:3681   */\n    tag_61:\n        /* \"#utility.yul\":3632:3638   */\n      dup3\n        /* \"#utility.yul\":3627:3630   */\n      dup2\n        /* \"#utility.yul\":3622:3625   */\n      dup4\n        /* \"#utility.yul\":3609:3639   */\n      calldatacopy\n        /* \"#utility.yul\":3673:3674   */\n      0x00\n        /* \"#utility.yul\":3664:3670   */\n      dup4\n        /* \"#utility.yul\":3659:3662   */\n      dup4\n        /* \"#utility.yul\":3655:3671   */\n      add\n        /* \"#utility.yul\":3648:3675   */\n      mstore\n        /* \"#utility.yul\":3535:3681   */\n      pop\n      pop\n      pop\n      jump\t// out\n        /* \"#utility.yul\":3687:4112   */\n    tag_62:\n        /* \"#utility.yul\":3765:3770   */\n      0x00\n        /* \"#utility.yul\":3790:3856   */\n      tag_129\n        /* \"#utility.yul\":3806:3855   */\n      tag_130\n        /* \"#utility.yul\":3848:3854   */\n      dup5\n        /* \"#utility.yul\":3806:3855   */\n      tag_60\n      jump\t// in\n    tag_130:\n        /* \"#utility.yul\":3790:3856   */\n      tag_59\n      jump\t// in\n    tag_129:\n        /* \"#utility.yul\":3781:3856   */\n      swap1\n      pop\n        /* \"#utility.yul\":3879:3885   */\n      dup3\n        /* \"#utility.yul\":3872:3877   */\n      dup2\n        /* \"#utility.yul\":3865:3886   */\n      mstore\n        /* \"#utility.yul\":3917:3921   */\n      0x20\n        /* \"#utility.yul\":3910:3915   */\n      dup2\n        /* \"#utility.yul\":3906:3922   */\n      add\n        /* \"#utility.yul\":3955:3958   */\n      dup5\n        /* \"#utility.yul\":3946:3952   */\n      dup5\n        /* \"#utility.yul\":3941:3944   */\n      dup5\n        /* \"#utility.yul\":3937:3953   */\n      add\n        /* \"#utility.yul\":3934:3959   */\n      gt\n        /* \"#utility.yul\":3931:4043   */\n      iszero\n      tag_131\n      jumpi\n        /* \"#utility.yul\":3962:4041   */\n      tag_132\n      tag_56\n      jump\t// in\n    tag_132:\n        /* \"#utility.yul\":3931:4043   */\n    tag_131:\n        /* \"#utility.yul\":4052:4106   */\n      tag_133\n        /* \"#utility.yul\":4099:4105   */\n      dup5\n        /* \"#utility.yul\":4094:4097   */\n      dup3\n        /* \"#utility.yul\":4089:4092   */\n      dup6\n        /* \"#utility.yul\":4052:4106   */\n      tag_61\n      jump\t// in\n    tag_133:\n        /* \"#utility.yul\":3771:4112   */\n      pop\n        /* \"#utility.yul\":3687:4112   */\n      swap4\n      swap3\n      pop\n      pop\n      pop\n      jump\t// out\n        /* \"#utility.yul\":4132:4472   */\n    tag_63:\n        /* \"#utility.yul\":4188:4193   */\n      0x00\n        /* \"#utility.yul\":4237:4240   */\n      dup3\n        /* \"#utility.yul\":4230:4234   */\n      0x1f\n        /* \"#utility.yul\":4222:4228   */\n      dup4\n        /* \"#utility.yul\":4218:4235   */\n      add\n        /* \"#utility.yul\":4214:4241   */\n      slt\n        /* \"#utility.yul\":4204:4326   */\n      tag_135\n      jumpi\n        /* \"#utility.yul\":4245:4324   */\n      tag_136\n      tag_55\n      jump\t// in\n    tag_136:\n        /* \"#utility.yul\":4204:4326   */\n    tag_135:\n        /* \"#utility.yul\":4362:4368   */\n      dup2\n        /* \"#utility.yul\":4349:4369   */\n      calldataload\n        /* \"#utility.yul\":4387:4466   */\n      tag_137\n        /* \"#utility.yul\":4462:4465   */\n      dup5\n        /* \"#utility.yul\":4454:4460   */\n      dup3\n        /* \"#utility.yul\":4447:4451   */\n      0x20\n        /* \"#utility.yul\":4439:4445   */\n      dup7\n        /* \"#utility.yul\":4435:4452   */\n      add\n        /* \"#utility.yul\":4387:4466   */\n      tag_62\n      jump\t// in\n    tag_137:\n        /* \"#utility.yul\":4378:4466   */\n      swap2\n      pop\n        /* \"#utility.yul\":4194:4472   */\n      pop\n        /* \"#utility.yul\":4132:4472   */\n      swap3\n      swap2\n      pop\n      pop\n      jump\t// out\n        /* \"#utility.yul\":4478:4987   */\n    tag_13:\n        /* \"#utility.yul\":4547:4553   */\n      0x00\n        /* \"#utility.yul\":4596:4598   */\n      0x20\n        /* \"#utility.yul\":4584:4593   */\n      dup3\n        /* \"#utility.yul\":4575:4582   */\n      dup5\n        /* \"#utility.yul\":4571:4594   */\n      sub\n        /* \"#utility.yul\":4567:4599   */\n      slt\n        /* \"#utility.yul\":4564:4683   */\n      iszero\n      tag_139\n      jumpi\n        /* \"#utility.yul\":4602:4681   */\n      tag_140\n      tag_45\n      jump\t// in\n    tag_140:\n        /* \"#utility.yul\":4564:4683   */\n    tag_139:\n        /* \"#utility.yul\":4750:4751   */\n      0x00\n        /* \"#utility.yul\":4739:4748   */\n      dup3\n        /* \"#utility.yul\":4735:4752   */\n      add\n        /* \"#utility.yul\":4722:4753   */\n      calldataload\n        /* \"#utility.yul\":4780:4798   */\n      0xffffffffffffffff\n        /* \"#utility.yul\":4772:4778   */\n      dup2\n        /* \"#utility.yul\":4769:4799   */\n      gt\n        /* \"#utility.yul\":4766:4883   */\n      iszero\n      tag_141\n      jumpi\n        /* \"#utility.yul\":4802:4881   */\n      tag_142\n      tag_46\n      jump\t// in\n    tag_142:\n        /* \"#utility.yul\":4766:4883   */\n    tag_141:\n        /* \"#utility.yul\":4907:4970   */\n      tag_143\n        /* \"#utility.yul\":4962:4969   */\n      dup5\n        /* \"#utility.yul\":4953:4959   */\n      dup3\n        /* \"#utility.yul\":4942:4951   */\n      dup6\n        /* \"#utility.yul\":4938:4960   */\n      add\n        /* \"#utility.yul\":4907:4970   */\n      tag_63\n      jump\t// in\n    tag_143:\n        /* \"#utility.yul\":4897:4970   */\n      swap2\n      pop\n        /* \"#utility.yul\":4693:4980   */\n      pop\n        /* \"#utility.yul\":4478:4987   */\n      swap3\n      swap2\n      pop\n      pop\n      jump\t// out\n        /* \"#utility.yul\":4993:5173   */\n    tag_64:\n        /* \"#utility.yul\":5041:5118   */\n      0x4e487b7100000000000000000000000000000000000000000000000000000000\n        /* \"#utility.yul\":5038:5039   */\n      0x00\n        /* \"#utility.yul\":5031:5119   */\n      mstore\n        /* \"#utility.yul\":5138:5142   */\n      0x22\n        /* \"#utility.yul\":5135:5136   */\n      0x04\n        /* \"#utility.yul\":5128:5143   */\n      mstore\n        /* \"#utility.yul\":5162:5166   */\n      0x24\n        /* \"#utility.yul\":5159:5160   */\n      0x00\n        /* \"#utility.yul\":5152:5167   */\n      revert\n        /* \"#utility.yul\":5179:5499   */\n    tag_19:\n        /* \"#utility.yul\":5223:5229   */\n      0x00\n        /* \"#utility.yul\":5260:5261   */\n      0x02\n        /* \"#utility.yul\":5254:5258   */\n      dup3\n        /* \"#utility.yul\":5250:5262   */\n      div\n        /* \"#utility.yul\":5240:5262   */\n      swap1\n      pop\n        /* \"#utility.yul\":5307:5308   */\n      0x01\n        /* \"#utility.yul\":5301:5305   */\n      dup3\n        /* \"#utility.yul\":5297:5309   */\n      and\n        /* \"#utility.yul\":5328:5346   */\n      dup1\n        /* \"#utility.yul\":5318:5399   */\n      tag_146\n      jumpi\n        /* \"#utility.yul\":5384:5388   */\n      0x7f\n        /* \"#utility.yul\":5376:5382   */\n      dup3\n        /* \"#utility.yul\":5372:5389   */\n      and\n        /* \"#utility.yul\":5362:5389   */\n      swap2\n      pop\n        /* \"#utility.yul\":5318:5399   */\n    tag_146:\n        /* \"#utility.yul\":5446:5448   */\n      0x20\n        /* \"#utility.yul\":5438:5444   */\n      dup3\n        /* \"#utility.yul\":5435:5449   */\n      lt\n        /* \"#utility.yul\":5415:5433   */\n      dup2\n        /* \"#utility.yul\":5412:5450   */\n      sub\n        /* \"#utility.yul\":5409:5493   */\n      tag_147\n      jumpi\n        /* \"#utility.yul\":5465:5483   */\n      tag_148\n      tag_64\n      jump\t// in\n    tag_148:\n        /* \"#utility.yul\":5409:5493   */\n    tag_147:\n        /* \"#utility.yul\":5230:5499   */\n      pop\n        /* \"#utility.yul\":5179:5499   */\n      swap2\n      swap1\n      pop\n      jump\t// out\n        /* \"#utility.yul\":5505:5685   */\n    tag_65:\n        /* \"#utility.yul\":5645:5677   */\n      0x456c207573756172696f2065732064656d61736961646f20636f72746f2e0000\n        /* \"#utility.yul\":5641:5642   */\n      0x00\n        /* \"#utility.yul\":5633:5639   */\n      dup3\n        /* \"#utility.yul\":5629:5643   */\n      add\n        /* \"#utility.yul\":5622:5678   */\n      mstore\n        /* \"#utility.yul\":5505:5685   */\n      pop\n      jump\t// out\n        /* \"#utility.yul\":5691:6057   */\n    tag_66:\n        /* \"#utility.yul\":5833:5836   */\n      0x00\n        /* \"#utility.yul\":5854:5921   */\n      tag_151\n        /* \"#utility.yul\":5918:5920   */\n      0x1e\n        /* \"#utility.yul\":5913:5916   */\n      dup4\n        /* \"#utility.yul\":5854:5921   */\n      tag_51\n      jump\t// in\n    tag_151:\n        /* \"#utility.yul\":5847:5921   */\n      swap2\n      pop\n        /* \"#utility.yul\":5930:6023   */\n      tag_152\n        /* \"#utility.yul\":6019:6022   */\n      dup3\n        /* \"#utility.yul\":5930:6023   */\n      tag_65\n      jump\t// in\n    tag_152:\n        /* \"#utility.yul\":6048:6050   */\n      0x20\n        /* \"#utility.yul\":6043:6046   */\n      dup3\n        /* \"#utility.yul\":6039:6051   */\n      add\n        /* \"#utility.yul\":6032:6051   */\n      swap1\n      pop\n        /* \"#utility.yul\":5691:6057   */\n      swap2\n      swap1\n      pop\n      jump\t// out\n        /* \"#utility.yul\":6063:6482   */\n    tag_27:\n        /* \"#utility.yul\":6229:6233   */\n      0x00\n        /* \"#utility.yul\":6267:6269   */\n      0x20\n        /* \"#utility.yul\":6256:6265   */\n      dup3\n        /* \"#utility.yul\":6252:6270   */\n      add\n        /* \"#utility.yul\":6244:6270   */\n      swap1\n      pop\n        /* \"#utility.yul\":6316:6325   */\n      dup2\n        /* \"#utility.yul\":6310:6314   */\n      dup2\n        /* \"#utility.yul\":6306:6326   */\n      sub\n        /* \"#utility.yul\":6302:6303   */\n      0x00\n        /* \"#utility.yul\":6291:6300   */\n      dup4\n        /* \"#utility.yul\":6287:6304   */\n      add\n        /* \"#utility.yul\":6280:6327   */\n      mstore\n        /* \"#utility.yul\":6344:6475   */\n      tag_154\n        /* \"#utility.yul\":6470:6474   */\n      dup2\n        /* \"#utility.yul\":6344:6475   */\n      tag_66\n      jump\t// in\n    tag_154:\n        /* \"#utility.yul\":6336:6475   */\n      swap1\n      pop\n        /* \"#utility.yul\":6063:6482   */\n      swap2\n      swap1\n      pop\n      jump\t// out\n        /* \"#utility.yul\":6488:6636   */\n    tag_67:\n        /* \"#utility.yul\":6590:6601   */\n      0x00\n        /* \"#utility.yul\":6627:6630   */\n      dup2\n        /* \"#utility.yul\":6612:6630   */\n      swap1\n      pop\n        /* \"#utility.yul\":6488:6636   */\n      swap3\n      swap2\n      pop\n      pop\n      jump\t// out\n        /* \"#utility.yul\":6642:7032   */\n    tag_68:\n        /* \"#utility.yul\":6748:6751   */\n      0x00\n        /* \"#utility.yul\":6776:6815   */\n      tag_157\n        /* \"#utility.yul\":6809:6814   */\n      dup3\n        /* \"#utility.yul\":6776:6815   */\n      tag_50\n      jump\t// in\n    tag_157:\n        /* \"#utility.yul\":6831:6920   */\n      tag_158\n        /* \"#utility.yul\":6913:6919   */\n      dup2\n        /* \"#utility.yul\":6908:6911   */\n      dup6\n        /* \"#utility.yul\":6831:6920   */\n      tag_67\n      jump\t// in\n    tag_158:\n        /* \"#utility.yul\":6824:6920   */\n      swap4\n      pop\n        /* \"#utility.yul\":6929:6994   */\n      tag_159\n        /* \"#utility.yul\":6987:6993   */\n      dup2\n        /* \"#utility.yul\":6982:6985   */\n      dup6\n        /* \"#utility.yul\":6975:6979   */\n      0x20\n        /* \"#utility.yul\":6968:6973   */\n      dup7\n        /* \"#utility.yul\":6964:6980   */\n      add\n        /* \"#utility.yul\":6929:6994   */\n      tag_52\n      jump\t// in\n    tag_159:\n        /* \"#utility.yul\":7019:7025   */\n      dup1\n        /* \"#utility.yul\":7014:7017   */\n      dup5\n        /* \"#utility.yul\":7010:7026   */\n      add\n        /* \"#utility.yul\":7003:7026   */\n      swap2\n      pop\n        /* \"#utility.yul\":6752:7032   */\n      pop\n        /* \"#utility.yul\":6642:7032   */\n      swap3\n      swap2\n      pop\n      pop\n      jump\t// out\n        /* \"#utility.yul\":7038:7313   */\n    tag_33:\n        /* \"#utility.yul\":7170:7173   */\n      0x00\n        /* \"#utility.yul\":7192:7287   */\n      tag_161\n        /* \"#utility.yul\":7283:7286   */\n      dup3\n        /* \"#utility.yul\":7274:7280   */\n      dup5\n        /* \"#utility.yul\":7192:7287   */\n      tag_68\n      jump\t// in\n    tag_161:\n        /* \"#utility.yul\":7185:7287   */\n      swap2\n      pop\n        /* \"#utility.yul\":7304:7307   */\n      dup2\n        /* \"#utility.yul\":7297:7307   */\n      swap1\n      pop\n        /* \"#utility.yul\":7038:7313   */\n      swap3\n      swap2\n      pop\n      pop\n      jump\t// out\n        /* \"#utility.yul\":7319:7499   */\n    tag_36:\n        /* \"#utility.yul\":7367:7444   */\n      0x4e487b7100000000000000000000000000000000000000000000000000000000\n        /* \"#utility.yul\":7364:7365   */\n      0x00\n        /* \"#utility.yul\":7357:7445   */\n      mstore\n        /* \"#utility.yul\":7464:7468   */\n      0x32\n        /* \"#utility.yul\":7461:7462   */\n      0x04\n        /* \"#utility.yul\":7454:7469   */\n      mstore\n        /* \"#utility.yul\":7488:7492   */\n      0x24\n        /* \"#utility.yul\":7485:7486   */\n      0x00\n        /* \"#utility.yul\":7478:7493   */\n      revert\n        /* \"#utility.yul\":7505:7646   */\n    tag_69:\n        /* \"#utility.yul\":7554:7558   */\n      0x00\n        /* \"#utility.yul\":7577:7580   */\n      dup2\n        /* \"#utility.yul\":7569:7580   */\n      swap1\n      pop\n        /* \"#utility.yul\":7600:7603   */\n      dup2\n        /* \"#utility.yul\":7597:7598   */\n      0x00\n        /* \"#utility.yul\":7590:7604   */\n      mstore\n        /* \"#utility.yul\":7634:7638   */\n      0x20\n        /* \"#utility.yul\":7631:7632   */\n      0x00\n        /* \"#utility.yul\":7621:7639   */\n      keccak256\n        /* \"#utility.yul\":7613:7639   */\n      swap1\n      pop\n        /* \"#utility.yul\":7505:7646   */\n      swap2\n      swap1\n      pop\n      jump\t// out\n        /* \"#utility.yul\":7676:8550   */\n    tag_70:\n        /* \"#utility.yul\":7779:7782   */\n      0x00\n        /* \"#utility.yul\":7816:7821   */\n      dup2\n        /* \"#utility.yul\":7810:7822   */\n      sload\n        /* \"#utility.yul\":7845:7881   */\n      tag_165\n        /* \"#utility.yul\":7871:7880   */\n      dup2\n        /* \"#utility.yul\":7845:7881   */\n      tag_19\n      jump\t// in\n    tag_165:\n        /* \"#utility.yul\":7897:7986   */\n      tag_166\n        /* \"#utility.yul\":7979:7985   */\n      dup2\n        /* \"#utility.yul\":7974:7977   */\n      dup7\n        /* \"#utility.yul\":7897:7986   */\n      tag_67\n      jump\t// in\n    tag_166:\n        /* \"#utility.yul\":7890:7986   */\n      swap5\n      pop\n        /* \"#utility.yul\":8017:8018   */\n      0x01\n        /* \"#utility.yul\":8006:8015   */\n      dup3\n        /* \"#utility.yul\":8002:8019   */\n      and\n        /* \"#utility.yul\":8033:8034   */\n      0x00\n        /* \"#utility.yul\":8028:8194   */\n      dup2\n      eq\n      tag_168\n      jumpi\n        /* \"#utility.yul\":8208:8209   */\n      0x01\n        /* \"#utility.yul\":8203:8544   */\n      dup2\n      eq\n      tag_169\n      jumpi\n        /* \"#utility.yul\":7995:8544   */\n      jump(tag_167)\n        /* \"#utility.yul\":8028:8194   */\n    tag_168:\n        /* \"#utility.yul\":8112:8116   */\n      0xff\n        /* \"#utility.yul\":8108:8117   */\n      not\n        /* \"#utility.yul\":8097:8106   */\n      dup4\n        /* \"#utility.yul\":8093:8118   */\n      and\n        /* \"#utility.yul\":8088:8091   */\n      dup7\n        /* \"#utility.yul\":8081:8119   */\n      mstore\n        /* \"#utility.yul\":8174:8180   */\n      dup2\n        /* \"#utility.yul\":8167:8181   */\n      iszero\n        /* \"#utility.yul\":8160:8182   */\n      iszero\n        /* \"#utility.yul\":8152:8158   */\n      dup3\n        /* \"#utility.yul\":8148:8183   */\n      mul\n        /* \"#utility.yul\":8143:8146   */\n      dup7\n        /* \"#utility.yul\":8139:8184   */\n      add\n        /* \"#utility.yul\":8132:8184   */\n      swap4\n      pop\n        /* \"#utility.yul\":8028:8194   */\n      jump(tag_167)\n        /* \"#utility.yul\":8203:8544   */\n    tag_169:\n        /* \"#utility.yul\":8270:8308   */\n      tag_170\n        /* \"#utility.yul\":8302:8307   */\n      dup6\n        /* \"#utility.yul\":8270:8308   */\n      tag_69\n      jump\t// in\n    tag_170:\n        /* \"#utility.yul\":8330:8331   */\n      0x00\n        /* \"#utility.yul\":8344:8498   */\n    tag_171:\n        /* \"#utility.yul\":8358:8364   */\n      dup4\n        /* \"#utility.yul\":8355:8356   */\n      dup2\n        /* \"#utility.yul\":8352:8365   */\n      lt\n        /* \"#utility.yul\":8344:8498   */\n      iszero\n      tag_173\n      jumpi\n        /* \"#utility.yul\":8432:8439   */\n      dup2\n        /* \"#utility.yul\":8426:8440   */\n      sload\n        /* \"#utility.yul\":8422:8423   */\n      dup2\n        /* \"#utility.yul\":8417:8420   */\n      dup10\n        /* \"#utility.yul\":8413:8424   */\n      add\n        /* \"#utility.yul\":8406:8441   */\n      mstore\n        /* \"#utility.yul\":8482:8483   */\n      0x01\n        /* \"#utility.yul\":8473:8480   */\n      dup3\n        /* \"#utility.yul\":8469:8484   */\n      add\n        /* \"#utility.yul\":8458:8484   */\n      swap2\n      pop\n        /* \"#utility.yul\":8380:8384   */\n      0x20\n        /* \"#utility.yul\":8377:8378   */\n      dup2\n        /* \"#utility.yul\":8373:8385   */\n      add\n        /* \"#utility.yul\":8368:8385   */\n      swap1\n      pop\n        /* \"#utility.yul\":8344:8498   */\n      jump(tag_171)\n    tag_173:\n        /* \"#utility.yul\":8527:8533   */\n      dup4\n        /* \"#utility.yul\":8522:8525   */\n      dup9\n        /* \"#utility.yul\":8518:8534   */\n      add\n        /* \"#utility.yul\":8511:8534   */\n      swap6\n      pop\n        /* \"#utility.yul\":8210:8544   */\n      pop\n      pop\n        /* \"#utility.yul\":7995:8544   */\n    tag_167:\n      pop\n        /* \"#utility.yul\":7783:8550   */\n      pop\n      pop\n        /* \"#utility.yul\":7676:8550   */\n      swap3\n      swap2\n      pop\n      pop\n      jump\t// out\n        /* \"#utility.yul\":8556:8825   */\n    tag_39:\n        /* \"#utility.yul\":8685:8688   */\n      0x00\n        /* \"#utility.yul\":8707:8799   */\n      tag_175\n        /* \"#utility.yul\":8795:8798   */\n      dup3\n        /* \"#utility.yul\":8786:8792   */\n      dup5\n        /* \"#utility.yul\":8707:8799   */\n      tag_70\n      jump\t// in\n    tag_175:\n        /* \"#utility.yul\":8700:8799   */\n      swap2\n      pop\n        /* \"#utility.yul\":8816:8819   */\n      dup2\n        /* \"#utility.yul\":8809:8819   */\n      swap1\n      pop\n        /* \"#utility.yul\":8556:8825   */\n      swap3\n      swap2\n      pop\n      pop\n      jump\t// out\n        /* \"#utility.yul\":8831:8924   */\n    tag_71:\n        /* \"#utility.yul\":8868:8874   */\n      0x00\n        /* \"#utility.yul\":8915:8917   */\n      0x20\n        /* \"#utility.yul\":8910:8912   */\n      0x1f\n        /* \"#utility.yul\":8903:8908   */\n      dup4\n        /* \"#utility.yul\":8899:8913   */\n      add\n        /* \"#utility.yul\":8895:8918   */\n      div\n        /* \"#utility.yul\":8885:8918   */\n      swap1\n      pop\n        /* \"#utility.yul\":8831:8924   */\n      swap2\n      swap1\n      pop\n      jump\t// out\n        /* \"#utility.yul\":8930:9037   */\n    tag_72:\n        /* \"#utility.yul\":8974:8982   */\n      0x00\n        /* \"#utility.yul\":9024:9029   */\n      dup3\n        /* \"#utility.yul\":9018:9022   */\n      dup3\n        /* \"#utility.yul\":9014:9030   */\n      shl\n        /* \"#utility.yul\":8993:9030   */\n      swap1\n      pop\n        /* \"#utility.yul\":8930:9037   */\n      swap3\n      swap2\n      pop\n      pop\n      jump\t// out\n        /* \"#utility.yul\":9043:9436   */\n    tag_73:\n        /* \"#utility.yul\":9112:9118   */\n      0x00\n        /* \"#utility.yul\":9162:9163   */\n      0x08\n        /* \"#utility.yul\":9150:9160   */\n      dup4\n        /* \"#utility.yul\":9146:9164   */\n      mul\n        /* \"#utility.yul\":9185:9282   */\n      tag_179\n        /* \"#utility.yul\":9215:9281   */\n      0xffffffffffffffffffffffffffffffffffffffffffffffffffffffffffffffff\n        /* \"#utility.yul\":9204:9213   */\n      dup3\n        /* \"#utility.yul\":9185:9282   */\n      tag_72\n      jump\t// in\n    tag_179:\n        /* \"#utility.yul\":9303:9342   */\n      tag_180\n        /* \"#utility.yul\":9333:9341   */\n      dup7\n        /* \"#utility.yul\":9322:9331   */\n      dup4\n        /* \"#utility.yul\":9303:9342   */\n      tag_72\n      jump\t// in\n    tag_180:\n        /* \"#utility.yul\":9291:9342   */\n      swap6\n      pop\n        /* \"#utility.yul\":9375:9379   */\n      dup1\n        /* \"#utility.yul\":9371:9380   */\n      not\n        /* \"#utility.yul\":9364:9369   */\n      dup5\n        /* \"#utility.yul\":9360:9381   */\n      and\n        /* \"#utility.yul\":9351:9381   */\n      swap4\n      pop\n        /* \"#utility.yul\":9424:9428   */\n      dup1\n        /* \"#utility.yul\":9414:9422   */\n      dup7\n        /* \"#utility.yul\":9410:9429   */\n      and\n        /* \"#utility.yul\":9403:9408   */\n      dup5\n        /* \"#utility.yul\":9400:9430   */\n      or\n        /* \"#utility.yul\":9390:9430   */\n      swap3\n      pop\n        /* \"#utility.yul\":9119:9436   */\n      pop\n      pop\n        /* \"#utility.yul\":9043:9436   */\n      swap4\n      swap3\n      pop\n      pop\n      pop\n      jump\t// out\n        /* \"#utility.yul\":9442:9502   */\n    tag_74:\n        /* \"#utility.yul\":9470:9473   */\n      0x00\n        /* \"#utility.yul\":9491:9496   */\n      dup2\n        /* \"#utility.yul\":9484:9496   */\n      swap1\n      pop\n        /* \"#utility.yul\":9442:9502   */\n      swap2\n      swap1\n      pop\n      jump\t// out\n        /* \"#utility.yul\":9508:9650   */\n    tag_75:\n        /* \"#utility.yul\":9558:9567   */\n      0x00\n        /* \"#utility.yul\":9591:9644   */\n      tag_183\n        /* \"#utility.yul\":9609:9643   */\n      tag_184\n        /* \"#utility.yul\":9618:9642   */\n      tag_185\n        /* \"#utility.yul\":9636:9641   */\n      dup5\n        /* \"#utility.yul\":9618:9642   */\n      tag_47\n      jump\t// in\n    tag_185:\n        /* \"#utility.yul\":9609:9643   */\n      tag_74\n      jump\t// in\n    tag_184:\n        /* \"#utility.yul\":9591:9644   */\n      tag_47\n      jump\t// in\n    tag_183:\n        /* \"#utility.yul\":9578:9644   */\n      swap1\n      pop\n        /* \"#utility.yul\":9508:9650   */\n      swap2\n      swap1\n      pop\n      jump\t// out\n        /* \"#utility.yul\":9656:9731   */\n    tag_76:\n        /* \"#utility.yul\":9699:9702   */\n      0x00\n        /* \"#utility.yul\":9720:9725   */\n      dup2\n        /* \"#utility.yul\":9713:9725   */\n      swap1\n      pop\n        /* \"#utility.yul\":9656:9731   */\n      swap2\n      swap1\n      pop\n      jump\t// out\n        /* \"#utility.yul\":9737:10006   */\n    tag_77:\n        /* \"#utility.yul\":9847:9886   */\n      tag_188\n        /* \"#utility.yul\":9878:9885   */\n      dup4\n        /* \"#utility.yul\":9847:9886   */\n      tag_75\n      jump\t// in\n    tag_188:\n        /* \"#utility.yul\":9908:9999   */\n      tag_189\n        /* \"#utility.yul\":9957:9998   */\n      tag_190\n        /* \"#utility.yul\":9981:9997   */\n      dup3\n        /* \"#utility.yul\":9957:9998   */\n      tag_76\n      jump\t// in\n    tag_190:\n        /* \"#utility.yul\":9949:9955   */\n      dup5\n        /* \"#utility.yul\":9942:9946   */\n      dup5\n        /* \"#utility.yul\":9936:9947   */\n      sload\n        /* \"#utility.yul\":9908:9999   */\n      tag_73\n      jump\t// in\n    tag_189:\n        /* \"#utility.yul\":9902:9906   */\n      dup3\n        /* \"#utility.yul\":9895:10000   */\n      sstore\n        /* \"#utility.yul\":9813:10006   */\n      pop\n        /* \"#utility.yul\":9737:10006   */\n      pop\n      pop\n      pop\n      jump\t// out\n        /* \"#utility.yul\":10012:10085   */\n    tag_78:\n        /* \"#utility.yul\":10057:10060   */\n      0x00\n        /* \"#utility.yul\":10012:10085   */\n      swap1\n      jump\t// out\n        /* \"#utility.yul\":10091:10280   */\n    tag_79:\n        /* \"#utility.yul\":10168:10200   */\n      tag_193\n      tag_78\n      jump\t// in\n    tag_193:\n        /* \"#utility.yul\":10209:10274   */\n      tag_194\n        /* \"#utility.yul\":10267:10273   */\n      dup2\n        /* \"#utility.yul\":10259:10265   */\n      dup5\n        /* \"#utility.yul\":10253:10257   */\n      dup5\n        /* \"#utility.yul\":10209:10274   */\n      tag_77\n      jump\t// in\n    tag_194:\n        /* \"#utility.yul\":10144:10280   */\n      pop\n        /* \"#utility.yul\":10091:10280   */\n      pop\n      pop\n      jump\t// out\n        /* \"#utility.yul\":10286:10472   */\n    tag_80:\n        /* \"#utility.yul\":10346:10466   */\n    tag_196:\n        /* \"#utility.yul\":10363:10366   */\n      dup2\n        /* \"#utility.yul\":10356:10361   */\n      dup2\n        /* \"#utility.yul\":10353:10367   */\n      lt\n        /* \"#utility.yul\":10346:10466   */\n      iszero\n      tag_198\n      jumpi\n        /* \"#utility.yul\":10417:10456   */\n      tag_199\n        /* \"#utility.yul\":10454:10455   */\n      0x00\n        /* \"#utility.yul\":10447:10452   */\n      dup3\n        /* \"#utility.yul\":10417:10456   */\n      tag_79\n      jump\t// in\n    tag_199:\n        /* \"#utility.yul\":10390:10391   */\n      0x01\n        /* \"#utility.yul\":10383:10388   */\n      dup2\n        /* \"#utility.yul\":10379:10392   */\n      add\n        /* \"#utility.yul\":10370:10392   */\n      swap1\n      pop\n        /* \"#utility.yul\":10346:10466   */\n      jump(tag_196)\n    tag_198:\n        /* \"#utility.yul\":10286:10472   */\n      pop\n      pop\n      jump\t// out\n        /* \"#utility.yul\":10478:11021   */\n    tag_81:\n        /* \"#utility.yul\":10579:10581   */\n      0x1f\n        /* \"#utility.yul\":10574:10577   */\n      dup3\n        /* \"#utility.yul\":10571:10582   */\n      gt\n        /* \"#utility.yul\":10568:11014   */\n      iszero\n      tag_201\n      jumpi\n        /* \"#utility.yul\":10613:10651   */\n      tag_202\n        /* \"#utility.yul\":10645:10650   */\n      dup2\n        /* \"#utility.yul\":10613:10651   */\n      tag_69\n      jump\t// in\n    tag_202:\n        /* \"#utility.yul\":10697:10726   */\n      tag_203\n        /* \"#utility.yul\":10715:10725   */\n      dup5\n        /* \"#utility.yul\":10697:10726   */\n      tag_71\n      jump\t// in\n    tag_203:\n        /* \"#utility.yul\":10687:10695   */\n      dup2\n        /* \"#utility.yul\":10683:10727   */\n      add\n        /* \"#utility.yul\":10880:10882   */\n      0x20\n        /* \"#utility.yul\":10868:10878   */\n      dup6\n        /* \"#utility.yul\":10865:10883   */\n      lt\n        /* \"#utility.yul\":10862:10911   */\n      iszero\n      tag_204\n      jumpi\n        /* \"#utility.yul\":10901:10909   */\n      dup2\n        /* \"#utility.yul\":10886:10909   */\n      swap1\n      pop\n        /* \"#utility.yul\":10862:10911   */\n    tag_204:\n        /* \"#utility.yul\":10924:11004   */\n      tag_205\n        /* \"#utility.yul\":10980:11002   */\n      tag_206\n        /* \"#utility.yul\":10998:11001   */\n      dup6\n        /* \"#utility.yul\":10980:11002   */\n      tag_71\n      jump\t// in\n    tag_206:\n        /* \"#utility.yul\":10970:10978   */\n      dup4\n        /* \"#utility.yul\":10966:11003   */\n      add\n        /* \"#utility.yul\":10953:10964   */\n      dup3\n        /* \"#utility.yul\":10924:11004   */\n      tag_80\n      jump\t// in\n    tag_205:\n        /* \"#utility.yul\":10583:11014   */\n      pop\n      pop\n        /* \"#utility.yul\":10568:11014   */\n    tag_201:\n        /* \"#utility.yul\":10478:11021   */\n      pop\n      pop\n      pop\n      jump\t// out\n        /* \"#utility.yul\":11027:11144   */\n    tag_82:\n        /* \"#utility.yul\":11081:11089   */\n      0x00\n        /* \"#utility.yul\":11131:11136   */\n      dup3\n        /* \"#utility.yul\":11125:11129   */\n      dup3\n        /* \"#utility.yul\":11121:11137   */\n      shr\n        /* \"#utility.yul\":11100:11137   */\n      swap1\n      pop\n        /* \"#utility.yul\":11027:11144   */\n      swap3\n      swap2\n      pop\n      pop\n      jump\t// out\n        /* \"#utility.yul\":11150:11319   */\n    tag_83:\n        /* \"#utility.yul\":11194:11200   */\n      0x00\n        /* \"#utility.yul\":11227:11278   */\n      tag_209\n        /* \"#utility.yul\":11275:11276   */\n      0x00\n        /* \"#utility.yul\":11271:11277   */\n      not\n        /* \"#utility.yul\":11263:11268   */\n      dup5\n        /* \"#utility.yul\":11260:11261   */\n      0x08\n        /* \"#utility.yul\":11256:11269   */\n      mul\n        /* \"#utility.yul\":11227:11278   */\n      tag_82\n      jump\t// in\n    tag_209:\n        /* \"#utility.yul\":11223:11279   */\n      not\n        /* \"#utility.yul\":11308:11312   */\n      dup1\n        /* \"#utility.yul\":11302:11306   */\n      dup4\n        /* \"#utility.yul\":11298:11313   */\n      and\n        /* \"#utility.yul\":11288:11313   */\n      swap2\n      pop\n        /* \"#utility.yul\":11201:11319   */\n      pop\n        /* \"#utility.yul\":11150:11319   */\n      swap3\n      swap2\n      pop\n      pop\n      jump\t// out\n        /* \"#utility.yul\":11324:11619   */\n    tag_84:\n        /* \"#utility.yul\":11400:11404   */\n      0x00\n        /* \"#utility.yul\":11546:11575   */\n      tag_211\n        /* \"#utility.yul\":11571:11574   */\n      dup4\n        /* \"#utility.yul\":11565:11569   */\n      dup4\n        /* \"#utility.yul\":11546:11575   */\n      tag_83\n      jump\t// in\n    tag_211:\n        /* \"#utility.yul\":11538:11575   */\n      swap2\n      pop\n        /* \"#utility.yul\":11608:11611   */\n      dup3\n        /* \"#utility.yul\":11605:11606   */\n      0x02\n        /* \"#utility.yul\":11601:11612   */\n      mul\n        /* \"#utility.yul\":11595:11599   */\n      dup3\n        /* \"#utility.yul\":11592:11613   */\n      or\n        /* \"#utility.yul\":11584:11613   */\n      swap1\n      pop\n        /* \"#utility.yul\":11324:11619   */\n      swap3\n      swap2\n      pop\n      pop\n      jump\t// out\n        /* \"#utility.yul\":11624:13019   */\n    tag_43:\n        /* \"#utility.yul\":11741:11778   */\n      tag_213\n        /* \"#utility.yul\":11774:11777   */\n      dup3\n        /* \"#utility.yul\":11741:11778   */\n      tag_50\n      jump\t// in\n    tag_213:\n        /* \"#utility.yul\":11843:11861   */\n      0xffffffffffffffff\n        /* \"#utility.yul\":11835:11841   */\n      dup2\n        /* \"#utility.yul\":11832:11862   */\n      gt\n        /* \"#utility.yul\":11829:11885   */\n      iszero\n      tag_214\n      jumpi\n        /* \"#utility.yul\":11865:11883   */\n      tag_215\n      tag_57\n      jump\t// in\n    tag_215:\n        /* \"#utility.yul\":11829:11885   */\n    tag_214:\n        /* \"#utility.yul\":11909:11947   */\n      tag_216\n        /* \"#utility.yul\":11941:11945   */\n      dup3\n        /* \"#utility.yul\":11935:11946   */\n      sload\n        /* \"#utility.yul\":11909:11947   */\n      tag_19\n      jump\t// in\n    tag_216:\n        /* \"#utility.yul\":11994:12061   */\n      tag_217\n        /* \"#utility.yul\":12054:12060   */\n      dup3\n        /* \"#utility.yul\":12046:12052   */\n      dup3\n        /* \"#utility.yul\":12040:12044   */\n      dup6\n        /* \"#utility.yul\":11994:12061   */\n      tag_81\n      jump\t// in\n    tag_217:\n        /* \"#utility.yul\":12088:12089   */\n      0x00\n        /* \"#utility.yul\":12112:12116   */\n      0x20\n        /* \"#utility.yul\":12099:12116   */\n      swap1\n      pop\n        /* \"#utility.yul\":12144:12146   */\n      0x1f\n        /* \"#utility.yul\":12136:12142   */\n      dup4\n        /* \"#utility.yul\":12133:12147   */\n      gt\n        /* \"#utility.yul\":12161:12162   */\n      0x01\n        /* \"#utility.yul\":12156:12774   */\n      dup2\n      eq\n      tag_219\n      jumpi\n        /* \"#utility.yul\":12818:12819   */\n      0x00\n        /* \"#utility.yul\":12835:12841   */\n      dup5\n        /* \"#utility.yul\":12832:12909   */\n      iszero\n      tag_220\n      jumpi\n        /* \"#utility.yul\":12884:12893   */\n      dup3\n        /* \"#utility.yul\":12879:12882   */\n      dup8\n        /* \"#utility.yul\":12875:12894   */\n      add\n        /* \"#utility.yul\":12869:12895   */\n      mload\n        /* \"#utility.yul\":12860:12895   */\n      swap1\n      pop\n        /* \"#utility.yul\":12832:12909   */\n    tag_220:\n        /* \"#utility.yul\":12935:13002   */\n      tag_221\n        /* \"#utility.yul\":12995:13001   */\n      dup6\n        /* \"#utility.yul\":12988:12993   */\n      dup3\n        /* \"#utility.yul\":12935:13002   */\n      tag_84\n      jump\t// in\n    tag_221:\n        /* \"#utility.yul\":12929:12933   */\n      dup7\n        /* \"#utility.yul\":12922:13003   */\n      sstore\n        /* \"#utility.yul\":12791:13013   */\n      pop\n        /* \"#utility.yul\":12126:13013   */\n      jump(tag_218)\n        /* \"#utility.yul\":12156:12774   */\n    tag_219:\n        /* \"#utility.yul\":12208:12212   */\n      0x1f\n        /* \"#utility.yul\":12204:12213   */\n      not\n        /* \"#utility.yul\":12196:12202   */\n      dup5\n        /* \"#utility.yul\":12192:12214   */\n      and\n        /* \"#utility.yul\":12242:12279   */\n      tag_222\n        /* \"#utility.yul\":12274:12278   */\n      dup7\n        /* \"#utility.yul\":12242:12279   */\n      tag_69\n      jump\t// in\n    tag_222:\n        /* \"#utility.yul\":12301:12302   */\n      0x00\n        /* \"#utility.yul\":12315:12523   */\n    tag_223:\n        /* \"#utility.yul\":12329:12336   */\n      dup3\n        /* \"#utility.yul\":12326:12327   */\n      dup2\n        /* \"#utility.yul\":12323:12337   */\n      lt\n        /* \"#utility.yul\":12315:12523   */\n      iszero\n      tag_225\n      jumpi\n        /* \"#utility.yul\":12408:12417   */\n      dup5\n        /* \"#utility.yul\":12403:12406   */\n      dup10\n        /* \"#utility.yul\":12399:12418   */\n      add\n        /* \"#utility.yul\":12393:12419   */\n      mload\n        /* \"#utility.yul\":12385:12391   */\n      dup3\n        /* \"#utility.yul\":12378:12420   */\n      sstore\n        /* \"#utility.yul\":12459:12460   */\n      0x01\n        /* \"#utility.yul\":12451:12457   */\n      dup3\n        /* \"#utility.yul\":12447:12461   */\n      add\n        /* \"#utility.yul\":12437:12461   */\n      swap2\n      pop\n        /* \"#utility.yul\":12506:12508   */\n      0x20\n        /* \"#utility.yul\":12495:12504   */\n      dup6\n        /* \"#utility.yul\":12491:12509   */\n      add\n        /* \"#utility.yul\":12478:12509   */\n      swap5\n      pop\n        /* \"#utility.yul\":12352:12356   */\n      0x20\n        /* \"#utility.yul\":12349:12350   */\n      dup2\n        /* \"#utility.yul\":12345:12357   */\n      add\n        /* \"#utility.yul\":12340:12357   */\n      swap1\n      pop\n        /* \"#utility.yul\":12315:12523   */\n      jump(tag_223)\n    tag_225:\n        /* \"#utility.yul\":12551:12557   */\n      dup7\n        /* \"#utility.yul\":12542:12549   */\n      dup4\n        /* \"#utility.yul\":12539:12558   */\n      lt\n        /* \"#utility.yul\":12536:12715   */\n      iszero\n      tag_226\n      jumpi\n        /* \"#utility.yul\":12609:12618   */\n      dup5\n        /* \"#utility.yul\":12604:12607   */\n      dup10\n        /* \"#utility.yul\":12600:12619   */\n      add\n        /* \"#utility.yul\":12594:12620   */\n      mload\n        /* \"#utility.yul\":12652:12700   */\n      tag_227\n        /* \"#utility.yul\":12694:12698   */\n      0x1f\n        /* \"#utility.yul\":12686:12692   */\n      dup10\n        /* \"#utility.yul\":12682:12699   */\n      and\n        /* \"#utility.yul\":12671:12680   */\n      dup3\n        /* \"#utility.yul\":12652:12700   */\n      tag_83\n      jump\t// in\n    tag_227:\n        /* \"#utility.yul\":12644:12650   */\n      dup4\n        /* \"#utility.yul\":12637:12701   */\n      sstore\n        /* \"#utility.yul\":12559:12715   */\n      pop\n        /* \"#utility.yul\":12536:12715   */\n    tag_226:\n        /* \"#utility.yul\":12761:12762   */\n      0x01\n        /* \"#utility.yul\":12757:12758   */\n      0x02\n        /* \"#utility.yul\":12749:12755   */\n      dup9\n        /* \"#utility.yul\":12745:12759   */\n      mul\n        /* \"#utility.yul\":12741:12763   */\n      add\n        /* \"#utility.yul\":12735:12739   */\n      dup9\n        /* \"#utility.yul\":12728:12764   */\n      sstore\n        /* \"#utility.yul\":12163:12774   */\n      pop\n      pop\n      pop\n        /* \"#utility.yul\":12126:13013   */\n    tag_218:\n      pop\n        /* \"#utility.yul\":11716:13019   */\n      pop\n      pop\n      pop\n        /* \"#utility.yul\":11624:13019   */\n      pop\n      pop\n      jump\t// out\n    stop\n    data_072c53312eeb639095c53d8148772637b913c614cafb78459cfe57edbc6bcf57 456c207573756172696f207961206578697374652c20706f72206661766f7220696e74726f64756365206f74726f2e\n\n    auxdata: 0xa2646970667358221220b733d5c33621667325ad46ab4a12a1206f2f7a0939e6897973c0b188712de20164736f6c63430008180033\n}\n",
				"bytecode": {
					"linkReferences": {},
					"object": "60806040526040518060a001604052806040518060400160405280600581526020017f61646d696e00000000000000000000000000000000000000000000000000000081525081526020016040518060400160405280600681526020017f4a6f686e3132000000000000000000000000000000000000000000000000000081525081526020016040518060400160405280600a81526020017f4d616e6f6c65746537370000000000000000000000000000000000000000000081525081526020016040518060400160405280600881526020017f676375656c6c617200000000000000000000000000000000000000000000000081525081526020016040518060400160405280600881526020017f4361726c6f7332330000000000000000000000000000000000000000000000008152508152505f9060056200014592919062000159565b5034801562000152575f80fd5b5062000586565b828054828255905f5260205f20908101928215620001a4579160200282015b82811115620001a3578251829081620001929190620004a2565b509160200191906001019062000178565b5b509050620001b39190620001b7565b5090565b5b80821115620001da575f8181620001d09190620001de565b50600101620001b8565b5090565b508054620001ec90620002a2565b5f825580601f10620001ff57506200021e565b601f0160209004905f5260205f20908101906200021d919062000221565b5b50565b5b808211156200023a575f815f90555060010162000222565b5090565b5f81519050919050565b7f4e487b71000000000000000000000000000000000000000000000000000000005f52604160045260245ffd5b7f4e487b71000000000000000000000000000000000000000000000000000000005f52602260045260245ffd5b5f6002820490506001821680620002ba57607f821691505b602082108103620002d057620002cf62000275565b5b50919050565b5f819050815f5260205f209050919050565b5f6020601f8301049050919050565b5f82821b905092915050565b5f60088302620003347fffffffffffffffffffffffffffffffffffffffffffffffffffffffffffffffff82620002f7565b620003408683620002f7565b95508019841693508086168417925050509392505050565b5f819050919050565b5f819050919050565b5f6200038a620003846200037e8462000358565b62000361565b62000358565b9050919050565b5f819050919050565b620003a5836200036a565b620003bd620003b48262000391565b84845462000303565b825550505050565b5f90565b620003d3620003c5565b620003e08184846200039a565b505050565b5b818110156200040757620003fb5f82620003c9565b600181019050620003e6565b5050565b601f82111562000456576200042081620002d6565b6200042b84620002e8565b810160208510156200043b578190505b620004536200044a85620002e8565b830182620003e5565b50505b505050565b5f82821c905092915050565b5f620004785f19846008026200045b565b1980831691505092915050565b5f62000492838362000467565b9150826002028217905092915050565b620004ad826200023e565b67ffffffffffffffff811115620004c957620004c862000248565b5b620004d58254620002a2565b620004e28282856200040b565b5f60209050601f83116001811462000518575f841562000503578287015190505b6200050f858262000485565b8655506200057e565b601f1984166200052886620002d6565b5f5b8281101562000551578489015182556001820191506020850194506020810190506200052a565b868310156200057157848901516200056d601f89168262000467565b8355505b6001600288020188555050505b505050505050565b6109d380620005945f395ff3fe608060405234801561000f575f80fd5b5060043610610034575f3560e01c8063365b98b2146100385780638b7afd1e14610068575b5f80fd5b610052600480360381019061004d91906102e2565b610098565b60405161005f9190610397565b60405180910390f35b610082600480360381019061007d91906104e3565b61013d565b60405161008f9190610397565b60405180910390f35b5f81815481106100a6575f80fd5b905f5260205f20015f9150905080546100be90610557565b80601f01602080910402602001604051908101604052809291908181526020018280546100ea90610557565b80156101355780601f1061010c57610100808354040283529160200191610135565b820191905f5260205f20905b81548152906001019060200180831161011857829003601f168201915b505050505081565b6060816003815111610184576040517f08c379a000000000000000000000000000000000000000000000000000000000815260040161017b906105d1565b60405180910390fd5b5f5b5f8054905081101561022d57836040516020016101a39190610629565b604051602081830303815290604052805190602001205f82815481106101cc576101cb61063f565b5b905f5260205f20016040516020016101e491906106fe565b6040516020818303038152906040528051906020012003610220576040518060600160405280602f815260200161096f602f9139925050610298565b8080600101915050610186565b505f83908060018154018082558091505060019003905f5260205f20015f90919091909150908161025e919061089f565b506040518060400160405280601781526020017f4e7565766f207573756172696f20616365707461646f2e00000000000000000081525091505b50919050565b5f604051905090565b5f80fd5b5f80fd5b5f819050919050565b6102c1816102af565b81146102cb575f80fd5b50565b5f813590506102dc816102b8565b92915050565b5f602082840312156102f7576102f66102a7565b5b5f610304848285016102ce565b91505092915050565b5f81519050919050565b5f82825260208201905092915050565b5f5b83811015610344578082015181840152602081019050610329565b5f8484015250505050565b5f601f19601f8301169050919050565b5f6103698261030d565b6103738185610317565b9350610383818560208601610327565b61038c8161034f565b840191505092915050565b5f6020820190508181035f8301526103af818461035f565b905092915050565b5f80fd5b5f80fd5b7f4e487b71000000000000000000000000000000000000000000000000000000005f52604160045260245ffd5b6103f58261034f565b810181811067ffffffffffffffff82111715610414576104136103bf565b5b80604052505050565b5f61042661029e565b905061043282826103ec565b919050565b5f67ffffffffffffffff821115610451576104506103bf565b5b61045a8261034f565b9050602081019050919050565b828183375f83830152505050565b5f61048761048284610437565b61041d565b9050828152602081018484840111156104a3576104a26103bb565b5b6104ae848285610467565b509392505050565b5f82601f8301126104ca576104c96103b7565b5b81356104da848260208601610475565b91505092915050565b5f602082840312156104f8576104f76102a7565b5b5f82013567ffffffffffffffff811115610515576105146102ab565b5b610521848285016104b6565b91505092915050565b7f4e487b71000000000000000000000000000000000000000000000000000000005f52602260045260245ffd5b5f600282049050600182168061056e57607f821691505b6020821081036105815761058061052a565b5b50919050565b7f456c207573756172696f2065732064656d61736961646f20636f72746f2e00005f82015250565b5f6105bb601e83610317565b91506105c682610587565b602082019050919050565b5f6020820190508181035f8301526105e8816105af565b9050919050565b5f81905092915050565b5f6106038261030d565b61060d81856105ef565b935061061d818560208601610327565b80840191505092915050565b5f61063482846105f9565b915081905092915050565b7f4e487b71000000000000000000000000000000000000000000000000000000005f52603260045260245ffd5b5f819050815f5260205f209050919050565b5f815461068a81610557565b61069481866105ef565b9450600182165f81146106ae57600181146106c3576106f5565b60ff19831686528115158202860193506106f5565b6106cc8561066c565b5f5b838110156106ed578154818901526001820191506020810190506106ce565b838801955050505b50505092915050565b5f610709828461067e565b915081905092915050565b5f6020601f8301049050919050565b5f82821b905092915050565b5f6008830261075e7fffffffffffffffffffffffffffffffffffffffffffffffffffffffffffffffff82610723565b6107688683610723565b95508019841693508086168417925050509392505050565b5f819050919050565b5f6107a361079e610799846102af565b610780565b6102af565b9050919050565b5f819050919050565b6107bc83610789565b6107d06107c8826107aa565b84845461072f565b825550505050565b5f90565b6107e46107d8565b6107ef8184846107b3565b505050565b5b81811015610812576108075f826107dc565b6001810190506107f5565b5050565b601f821115610857576108288161066c565b61083184610714565b81016020851015610840578190505b61085461084c85610714565b8301826107f4565b50505b505050565b5f82821c905092915050565b5f6108775f198460080261085c565b1980831691505092915050565b5f61088f8383610868565b9150826002028217905092915050565b6108a88261030d565b67ffffffffffffffff8111156108c1576108c06103bf565b5b6108cb8254610557565b6108d6828285610816565b5f60209050601f831160018114610907575f84156108f5578287015190505b6108ff8582610884565b865550610966565b601f1984166109158661066c565b5f5b8281101561093c57848901518255600182019150602085019450602081019050610917565b868310156109595784890151610955601f891682610868565b8355505b6001600288020188555050505b50505050505056fe456c207573756172696f207961206578697374652c20706f72206661766f7220696e74726f64756365206f74726f2ea2646970667358221220b733d5c33621667325ad46ab4a12a1206f2f7a0939e6897973c0b188712de20164736f6c63430008180033",
					"opcodes": "PUSH1 0x80 PUSH1 0x40 MSTORE PUSH1 0x40 MLOAD DUP1 PUSH1 0xA0 ADD PUSH1 0x40 MSTORE DUP1 PUSH1 0x40 MLOAD DUP1 PUSH1 0x40 ADD PUSH1 0x40 MSTORE DUP1 PUSH1 0x5 DUP2 MSTORE PUSH1 0x20 ADD PUSH32 0x61646D696E000000000000000000000000000000000000000000000000000000 DUP2 MSTORE POP DUP2 MSTORE PUSH1 0x20 ADD PUSH1 0x40 MLOAD DUP1 PUSH1 0x40 ADD PUSH1 0x40 MSTORE DUP1 PUSH1 0x6 DUP2 MSTORE PUSH1 0x20 ADD PUSH32 0x4A6F686E31320000000000000000000000000000000000000000000000000000 DUP2 MSTORE POP DUP2 MSTORE PUSH1 0x20 ADD PUSH1 0x40 MLOAD DUP1 PUSH1 0x40 ADD PUSH1 0x40 MSTORE DUP1 PUSH1 0xA DUP2 MSTORE PUSH1 0x20 ADD PUSH32 0x4D616E6F6C657465373700000000000000000000000000000000000000000000 DUP2 MSTORE POP DUP2 MSTORE PUSH1 0x20 ADD PUSH1 0x40 MLOAD DUP1 PUSH1 0x40 ADD PUSH1 0x40 MSTORE DUP1 PUSH1 0x8 DUP2 MSTORE PUSH1 0x20 ADD PUSH32 0x676375656C6C6172000000000000000000000000000000000000000000000000 DUP2 MSTORE POP DUP2 MSTORE PUSH1 0x20 ADD PUSH1 0x40 MLOAD DUP1 PUSH1 0x40 ADD PUSH1 0x40 MSTORE DUP1 PUSH1 0x8 DUP2 MSTORE PUSH1 0x20 ADD PUSH32 0x4361726C6F733233000000000000000000000000000000000000000000000000 DUP2 MSTORE POP DUP2 MSTORE POP PUSH0 SWAP1 PUSH1 0x5 PUSH3 0x145 SWAP3 SWAP2 SWAP1 PUSH3 0x159 JUMP JUMPDEST POP CALLVALUE DUP1 ISZERO PUSH3 0x152 JUMPI PUSH0 DUP1 REVERT JUMPDEST POP PUSH3 0x586 JUMP JUMPDEST DUP3 DUP1 SLOAD DUP3 DUP3 SSTORE SWAP1 PUSH0 MSTORE PUSH1 0x20 PUSH0 KECCAK256 SWAP1 DUP2 ADD SWAP3 DUP3 ISZERO PUSH3 0x1A4 JUMPI SWAP2 PUSH1 0x20 MUL DUP3 ADD JUMPDEST DUP3 DUP2 GT ISZERO PUSH3 0x1A3 JUMPI DUP3 MLOAD DUP3 SWAP1 DUP2 PUSH3 0x192 SWAP2 SWAP1 PUSH3 0x4A2 JUMP JUMPDEST POP SWAP2 PUSH1 0x20 ADD SWAP2 SWAP1 PUSH1 0x1 ADD SWAP1 PUSH3 0x178 JUMP JUMPDEST JUMPDEST POP SWAP1 POP PUSH3 0x1B3 SWAP2 SWAP1 PUSH3 0x1B7 JUMP JUMPDEST POP SWAP1 JUMP JUMPDEST JUMPDEST DUP1 DUP3 GT ISZERO PUSH3 0x1DA JUMPI PUSH0 DUP2 DUP2 PUSH3 0x1D0 SWAP2 SWAP1 PUSH3 0x1DE JUMP JUMPDEST POP PUSH1 0x1 ADD PUSH3 0x1B8 JUMP JUMPDEST POP SWAP1 JUMP JUMPDEST POP DUP1 SLOAD PUSH3 0x1EC SWAP1 PUSH3 0x2A2 JUMP JUMPDEST PUSH0 DUP3 SSTORE DUP1 PUSH1 0x1F LT PUSH3 0x1FF JUMPI POP PUSH3 0x21E JUMP JUMPDEST PUSH1 0x1F ADD PUSH1 0x20 SWAP1 DIV SWAP1 PUSH0 MSTORE PUSH1 0x20 PUSH0 KECCAK256 SWAP1 DUP2 ADD SWAP1 PUSH3 0x21D SWAP2 SWAP1 PUSH3 0x221 JUMP JUMPDEST JUMPDEST POP JUMP JUMPDEST JUMPDEST DUP1 DUP3 GT ISZERO PUSH3 0x23A JUMPI PUSH0 DUP2 PUSH0 SWAP1 SSTORE POP PUSH1 0x1 ADD PUSH3 0x222 JUMP JUMPDEST POP SWAP1 JUMP JUMPDEST PUSH0 DUP2 MLOAD SWAP1 POP SWAP2 SWAP1 POP JUMP JUMPDEST PUSH32 0x4E487B7100000000000000000000000000000000000000000000000000000000 PUSH0 MSTORE PUSH1 0x41 PUSH1 0x4 MSTORE PUSH1 0x24 PUSH0 REVERT JUMPDEST PUSH32 0x4E487B7100000000000000000000000000000000000000000000000000000000 PUSH0 MSTORE PUSH1 0x22 PUSH1 0x4 MSTORE PUSH1 0x24 PUSH0 REVERT JUMPDEST PUSH0 PUSH1 0x2 DUP3 DIV SWAP1 POP PUSH1 0x1 DUP3 AND DUP1 PUSH3 0x2BA JUMPI PUSH1 0x7F DUP3 AND SWAP2 POP JUMPDEST PUSH1 0x20 DUP3 LT DUP2 SUB PUSH3 0x2D0 JUMPI PUSH3 0x2CF PUSH3 0x275 JUMP JUMPDEST JUMPDEST POP SWAP2 SWAP1 POP JUMP JUMPDEST PUSH0 DUP2 SWAP1 POP DUP2 PUSH0 MSTORE PUSH1 0x20 PUSH0 KECCAK256 SWAP1 POP SWAP2 SWAP1 POP JUMP JUMPDEST PUSH0 PUSH1 0x20 PUSH1 0x1F DUP4 ADD DIV SWAP1 POP SWAP2 SWAP1 POP JUMP JUMPDEST PUSH0 DUP3 DUP3 SHL SWAP1 POP SWAP3 SWAP2 POP POP JUMP JUMPDEST PUSH0 PUSH1 0x8 DUP4 MUL PUSH3 0x334 PUSH32 0xFFFFFFFFFFFFFFFFFFFFFFFFFFFFFFFFFFFFFFFFFFFFFFFFFFFFFFFFFFFFFFFF DUP3 PUSH3 0x2F7 JUMP JUMPDEST PUSH3 0x340 DUP7 DUP4 PUSH3 0x2F7 JUMP JUMPDEST SWAP6 POP DUP1 NOT DUP5 AND SWAP4 POP DUP1 DUP7 AND DUP5 OR SWAP3 POP POP POP SWAP4 SWAP3 POP POP POP JUMP JUMPDEST PUSH0 DUP2 SWAP1 POP SWAP2 SWAP1 POP JUMP JUMPDEST PUSH0 DUP2 SWAP1 POP SWAP2 SWAP1 POP JUMP JUMPDEST PUSH0 PUSH3 0x38A PUSH3 0x384 PUSH3 0x37E DUP5 PUSH3 0x358 JUMP JUMPDEST PUSH3 0x361 JUMP JUMPDEST PUSH3 0x358 JUMP JUMPDEST SWAP1 POP SWAP2 SWAP1 POP JUMP JUMPDEST PUSH0 DUP2 SWAP1 POP SWAP2 SWAP1 POP JUMP JUMPDEST PUSH3 0x3A5 DUP4 PUSH3 0x36A JUMP JUMPDEST PUSH3 0x3BD PUSH3 0x3B4 DUP3 PUSH3 0x391 JUMP JUMPDEST DUP5 DUP5 SLOAD PUSH3 0x303 JUMP JUMPDEST DUP3 SSTORE POP POP POP POP JUMP JUMPDEST PUSH0 SWAP1 JUMP JUMPDEST PUSH3 0x3D3 PUSH3 0x3C5 JUMP JUMPDEST PUSH3 0x3E0 DUP2 DUP5 DUP5 PUSH3 0x39A JUMP JUMPDEST POP POP POP JUMP JUMPDEST JUMPDEST DUP2 DUP2 LT ISZERO PUSH3 0x407 JUMPI PUSH3 0x3FB PUSH0 DUP3 PUSH3 0x3C9 JUMP JUMPDEST PUSH1 0x1 DUP2 ADD SWAP1 POP PUSH3 0x3E6 JUMP JUMPDEST POP POP JUMP JUMPDEST PUSH1 0x1F DUP3 GT ISZERO PUSH3 0x456 JUMPI PUSH3 0x420 DUP2 PUSH3 0x2D6 JUMP JUMPDEST PUSH3 0x42B DUP5 PUSH3 0x2E8 JUMP JUMPDEST DUP2 ADD PUSH1 0x20 DUP6 LT ISZERO PUSH3 0x43B JUMPI DUP2 SWAP1 POP JUMPDEST PUSH3 0x453 PUSH3 0x44A DUP6 PUSH3 0x2E8 JUMP JUMPDEST DUP4 ADD DUP3 PUSH3 0x3E5 JUMP JUMPDEST POP POP JUMPDEST POP POP POP JUMP JUMPDEST PUSH0 DUP3 DUP3 SHR SWAP1 POP SWAP3 SWAP2 POP POP JUMP JUMPDEST PUSH0 PUSH3 0x478 PUSH0 NOT DUP5 PUSH1 0x8 MUL PUSH3 0x45B JUMP JUMPDEST NOT DUP1 DUP4 AND SWAP2 POP POP SWAP3 SWAP2 POP POP JUMP JUMPDEST PUSH0 PUSH3 0x492 DUP4 DUP4 PUSH3 0x467 JUMP JUMPDEST SWAP2 POP DUP3 PUSH1 0x2 MUL DUP3 OR SWAP1 POP SWAP3 SWAP2 POP POP JUMP JUMPDEST PUSH3 0x4AD DUP3 PUSH3 0x23E JUMP JUMPDEST PUSH8 0xFFFFFFFFFFFFFFFF DUP2 GT ISZERO PUSH3 0x4C9 JUMPI PUSH3 0x4C8 PUSH3 0x248 JUMP JUMPDEST JUMPDEST PUSH3 0x4D5 DUP3 SLOAD PUSH3 0x2A2 JUMP JUMPDEST PUSH3 0x4E2 DUP3 DUP3 DUP6 PUSH3 0x40B JUMP JUMPDEST PUSH0 PUSH1 0x20 SWAP1 POP PUSH1 0x1F DUP4 GT PUSH1 0x1 DUP2 EQ PUSH3 0x518 JUMPI PUSH0 DUP5 ISZERO PUSH3 0x503 JUMPI DUP3 DUP8 ADD MLOAD SWAP1 POP JUMPDEST PUSH3 0x50F DUP6 DUP3 PUSH3 0x485 JUMP JUMPDEST DUP7 SSTORE POP PUSH3 0x57E JUMP JUMPDEST PUSH1 0x1F NOT DUP5 AND PUSH3 0x528 DUP7 PUSH3 0x2D6 JUMP JUMPDEST PUSH0 JUMPDEST DUP3 DUP2 LT ISZERO PUSH3 0x551 JUMPI DUP5 DUP10 ADD MLOAD DUP3 SSTORE PUSH1 0x1 DUP3 ADD SWAP2 POP PUSH1 0x20 DUP6 ADD SWAP5 POP PUSH1 0x20 DUP2 ADD SWAP1 POP PUSH3 0x52A JUMP JUMPDEST DUP7 DUP4 LT ISZERO PUSH3 0x571 JUMPI DUP5 DUP10 ADD MLOAD PUSH3 0x56D PUSH1 0x1F DUP10 AND DUP3 PUSH3 0x467 JUMP JUMPDEST DUP4 SSTORE POP JUMPDEST PUSH1 0x1 PUSH1 0x2 DUP9 MUL ADD DUP9 SSTORE POP POP POP JUMPDEST POP POP POP POP POP POP JUMP JUMPDEST PUSH2 0x9D3 DUP1 PUSH3 0x594 PUSH0 CODECOPY PUSH0 RETURN INVALID PUSH1 0x80 PUSH1 0x40 MSTORE CALLVALUE DUP1 ISZERO PUSH2 0xF JUMPI PUSH0 DUP1 REVERT JUMPDEST POP PUSH1 0x4 CALLDATASIZE LT PUSH2 0x34 JUMPI PUSH0 CALLDATALOAD PUSH1 0xE0 SHR DUP1 PUSH4 0x365B98B2 EQ PUSH2 0x38 JUMPI DUP1 PUSH4 0x8B7AFD1E EQ PUSH2 0x68 JUMPI JUMPDEST PUSH0 DUP1 REVERT JUMPDEST PUSH2 0x52 PUSH1 0x4 DUP1 CALLDATASIZE SUB DUP2 ADD SWAP1 PUSH2 0x4D SWAP2 SWAP1 PUSH2 0x2E2 JUMP JUMPDEST PUSH2 0x98 JUMP JUMPDEST PUSH1 0x40 MLOAD PUSH2 0x5F SWAP2 SWAP1 PUSH2 0x397 JUMP JUMPDEST PUSH1 0x40 MLOAD DUP1 SWAP2 SUB SWAP1 RETURN JUMPDEST PUSH2 0x82 PUSH1 0x4 DUP1 CALLDATASIZE SUB DUP2 ADD SWAP1 PUSH2 0x7D SWAP2 SWAP1 PUSH2 0x4E3 JUMP JUMPDEST PUSH2 0x13D JUMP JUMPDEST PUSH1 0x40 MLOAD PUSH2 0x8F SWAP2 SWAP1 PUSH2 0x397 JUMP JUMPDEST PUSH1 0x40 MLOAD DUP1 SWAP2 SUB SWAP1 RETURN JUMPDEST PUSH0 DUP2 DUP2 SLOAD DUP2 LT PUSH2 0xA6 JUMPI PUSH0 DUP1 REVERT JUMPDEST SWAP1 PUSH0 MSTORE PUSH1 0x20 PUSH0 KECCAK256 ADD PUSH0 SWAP2 POP SWAP1 POP DUP1 SLOAD PUSH2 0xBE SWAP1 PUSH2 0x557 JUMP JUMPDEST DUP1 PUSH1 0x1F ADD PUSH1 0x20 DUP1 SWAP2 DIV MUL PUSH1 0x20 ADD PUSH1 0x40 MLOAD SWAP1 DUP2 ADD PUSH1 0x40 MSTORE DUP1 SWAP3 SWAP2 SWAP1 DUP2 DUP2 MSTORE PUSH1 0x20 ADD DUP3 DUP1 SLOAD PUSH2 0xEA SWAP1 PUSH2 0x557 JUMP JUMPDEST DUP1 ISZERO PUSH2 0x135 JUMPI DUP1 PUSH1 0x1F LT PUSH2 0x10C JUMPI PUSH2 0x100 DUP1 DUP4 SLOAD DIV MUL DUP4 MSTORE SWAP2 PUSH1 0x20 ADD SWAP2 PUSH2 0x135 JUMP JUMPDEST DUP3 ADD SWAP2 SWAP1 PUSH0 MSTORE PUSH1 0x20 PUSH0 KECCAK256 SWAP1 JUMPDEST DUP2 SLOAD DUP2 MSTORE SWAP1 PUSH1 0x1 ADD SWAP1 PUSH1 0x20 ADD DUP1 DUP4 GT PUSH2 0x118 JUMPI DUP3 SWAP1 SUB PUSH1 0x1F AND DUP3 ADD SWAP2 JUMPDEST POP POP POP POP POP DUP2 JUMP JUMPDEST PUSH1 0x60 DUP2 PUSH1 0x3 DUP2 MLOAD GT PUSH2 0x184 JUMPI PUSH1 0x40 MLOAD PUSH32 0x8C379A000000000000000000000000000000000000000000000000000000000 DUP2 MSTORE PUSH1 0x4 ADD PUSH2 0x17B SWAP1 PUSH2 0x5D1 JUMP JUMPDEST PUSH1 0x40 MLOAD DUP1 SWAP2 SUB SWAP1 REVERT JUMPDEST PUSH0 JUMPDEST PUSH0 DUP1 SLOAD SWAP1 POP DUP2 LT ISZERO PUSH2 0x22D JUMPI DUP4 PUSH1 0x40 MLOAD PUSH1 0x20 ADD PUSH2 0x1A3 SWAP2 SWAP1 PUSH2 0x629 JUMP JUMPDEST PUSH1 0x40 MLOAD PUSH1 0x20 DUP2 DUP4 SUB SUB DUP2 MSTORE SWAP1 PUSH1 0x40 MSTORE DUP1 MLOAD SWAP1 PUSH1 0x20 ADD KECCAK256 PUSH0 DUP3 DUP2 SLOAD DUP2 LT PUSH2 0x1CC JUMPI PUSH2 0x1CB PUSH2 0x63F JUMP JUMPDEST JUMPDEST SWAP1 PUSH0 MSTORE PUSH1 0x20 PUSH0 KECCAK256 ADD PUSH1 0x40 MLOAD PUSH1 0x20 ADD PUSH2 0x1E4 SWAP2 SWAP1 PUSH2 0x6FE JUMP JUMPDEST PUSH1 0x40 MLOAD PUSH1 0x20 DUP2 DUP4 SUB SUB DUP2 MSTORE SWAP1 PUSH1 0x40 MSTORE DUP1 MLOAD SWAP1 PUSH1 0x20 ADD KECCAK256 SUB PUSH2 0x220 JUMPI PUSH1 0x40 MLOAD DUP1 PUSH1 0x60 ADD PUSH1 0x40 MSTORE DUP1 PUSH1 0x2F DUP2 MSTORE PUSH1 0x20 ADD PUSH2 0x96F PUSH1 0x2F SWAP2 CODECOPY SWAP3 POP POP PUSH2 0x298 JUMP JUMPDEST DUP1 DUP1 PUSH1 0x1 ADD SWAP2 POP POP PUSH2 0x186 JUMP JUMPDEST POP PUSH0 DUP4 SWAP1 DUP1 PUSH1 0x1 DUP2 SLOAD ADD DUP1 DUP3 SSTORE DUP1 SWAP2 POP POP PUSH1 0x1 SWAP1 SUB SWAP1 PUSH0 MSTORE PUSH1 0x20 PUSH0 KECCAK256 ADD PUSH0 SWAP1 SWAP2 SWAP1 SWAP2 SWAP1 SWAP2 POP SWAP1 DUP2 PUSH2 0x25E SWAP2 SWAP1 PUSH2 0x89F JUMP JUMPDEST POP PUSH1 0x40 MLOAD DUP1 PUSH1 0x40 ADD PUSH1 0x40 MSTORE DUP1 PUSH1 0x17 DUP2 MSTORE PUSH1 0x20 ADD PUSH32 0x4E7565766F207573756172696F20616365707461646F2E000000000000000000 DUP2 MSTORE POP SWAP2 POP JUMPDEST POP SWAP2 SWAP1 POP JUMP JUMPDEST PUSH0 PUSH1 0x40 MLOAD SWAP1 POP SWAP1 JUMP JUMPDEST PUSH0 DUP1 REVERT JUMPDEST PUSH0 DUP1 REVERT JUMPDEST PUSH0 DUP2 SWAP1 POP SWAP2 SWAP1 POP JUMP JUMPDEST PUSH2 0x2C1 DUP2 PUSH2 0x2AF JUMP JUMPDEST DUP2 EQ PUSH2 0x2CB JUMPI PUSH0 DUP1 REVERT JUMPDEST POP JUMP JUMPDEST PUSH0 DUP2 CALLDATALOAD SWAP1 POP PUSH2 0x2DC DUP2 PUSH2 0x2B8 JUMP JUMPDEST SWAP3 SWAP2 POP POP JUMP JUMPDEST PUSH0 PUSH1 0x20 DUP3 DUP5 SUB SLT ISZERO PUSH2 0x2F7 JUMPI PUSH2 0x2F6 PUSH2 0x2A7 JUMP JUMPDEST JUMPDEST PUSH0 PUSH2 0x304 DUP5 DUP3 DUP6 ADD PUSH2 0x2CE JUMP JUMPDEST SWAP2 POP POP SWAP3 SWAP2 POP POP JUMP JUMPDEST PUSH0 DUP2 MLOAD SWAP1 POP SWAP2 SWAP1 POP JUMP JUMPDEST PUSH0 DUP3 DUP3 MSTORE PUSH1 0x20 DUP3 ADD SWAP1 POP SWAP3 SWAP2 POP POP JUMP JUMPDEST PUSH0 JUMPDEST DUP4 DUP2 LT ISZERO PUSH2 0x344 JUMPI DUP1 DUP3 ADD MLOAD DUP2 DUP5 ADD MSTORE PUSH1 0x20 DUP2 ADD SWAP1 POP PUSH2 0x329 JUMP JUMPDEST PUSH0 DUP5 DUP5 ADD MSTORE POP POP POP POP JUMP JUMPDEST PUSH0 PUSH1 0x1F NOT PUSH1 0x1F DUP4 ADD AND SWAP1 POP SWAP2 SWAP1 POP JUMP JUMPDEST PUSH0 PUSH2 0x369 DUP3 PUSH2 0x30D JUMP JUMPDEST PUSH2 0x373 DUP2 DUP6 PUSH2 0x317 JUMP JUMPDEST SWAP4 POP PUSH2 0x383 DUP2 DUP6 PUSH1 0x20 DUP7 ADD PUSH2 0x327 JUMP JUMPDEST PUSH2 0x38C DUP2 PUSH2 0x34F JUMP JUMPDEST DUP5 ADD SWAP2 POP POP SWAP3 SWAP2 POP POP JUMP JUMPDEST PUSH0 PUSH1 0x20 DUP3 ADD SWAP1 POP DUP2 DUP2 SUB PUSH0 DUP4 ADD MSTORE PUSH2 0x3AF DUP2 DUP5 PUSH2 0x35F JUMP JUMPDEST SWAP1 POP SWAP3 SWAP2 POP POP JUMP JUMPDEST PUSH0 DUP1 REVERT JUMPDEST PUSH0 DUP1 REVERT JUMPDEST PUSH32 0x4E487B7100000000000000000000000000000000000000000000000000000000 PUSH0 MSTORE PUSH1 0x41 PUSH1 0x4 MSTORE PUSH1 0x24 PUSH0 REVERT JUMPDEST PUSH2 0x3F5 DUP3 PUSH2 0x34F JUMP JUMPDEST DUP2 ADD DUP2 DUP2 LT PUSH8 0xFFFFFFFFFFFFFFFF DUP3 GT OR ISZERO PUSH2 0x414 JUMPI PUSH2 0x413 PUSH2 0x3BF JUMP JUMPDEST JUMPDEST DUP1 PUSH1 0x40 MSTORE POP POP POP JUMP JUMPDEST PUSH0 PUSH2 0x426 PUSH2 0x29E JUMP JUMPDEST SWAP1 POP PUSH2 0x432 DUP3 DUP3 PUSH2 0x3EC JUMP JUMPDEST SWAP2 SWAP1 POP JUMP JUMPDEST PUSH0 PUSH8 0xFFFFFFFFFFFFFFFF DUP3 GT ISZERO PUSH2 0x451 JUMPI PUSH2 0x450 PUSH2 0x3BF JUMP JUMPDEST JUMPDEST PUSH2 0x45A DUP3 PUSH2 0x34F JUMP JUMPDEST SWAP1 POP PUSH1 0x20 DUP2 ADD SWAP1 POP SWAP2 SWAP1 POP JUMP JUMPDEST DUP3 DUP2 DUP4 CALLDATACOPY PUSH0 DUP4 DUP4 ADD MSTORE POP POP POP JUMP JUMPDEST PUSH0 PUSH2 0x487 PUSH2 0x482 DUP5 PUSH2 0x437 JUMP JUMPDEST PUSH2 0x41D JUMP JUMPDEST SWAP1 POP DUP3 DUP2 MSTORE PUSH1 0x20 DUP2 ADD DUP5 DUP5 DUP5 ADD GT ISZERO PUSH2 0x4A3 JUMPI PUSH2 0x4A2 PUSH2 0x3BB JUMP JUMPDEST JUMPDEST PUSH2 0x4AE DUP5 DUP3 DUP6 PUSH2 0x467 JUMP JUMPDEST POP SWAP4 SWAP3 POP POP POP JUMP JUMPDEST PUSH0 DUP3 PUSH1 0x1F DUP4 ADD SLT PUSH2 0x4CA JUMPI PUSH2 0x4C9 PUSH2 0x3B7 JUMP JUMPDEST JUMPDEST DUP2 CALLDATALOAD PUSH2 0x4DA DUP5 DUP3 PUSH1 0x20 DUP7 ADD PUSH2 0x475 JUMP JUMPDEST SWAP2 POP POP SWAP3 SWAP2 POP POP JUMP JUMPDEST PUSH0 PUSH1 0x20 DUP3 DUP5 SUB SLT ISZERO PUSH2 0x4F8 JUMPI PUSH2 0x4F7 PUSH2 0x2A7 JUMP JUMPDEST JUMPDEST PUSH0 DUP3 ADD CALLDATALOAD PUSH8 0xFFFFFFFFFFFFFFFF DUP2 GT ISZERO PUSH2 0x515 JUMPI PUSH2 0x514 PUSH2 0x2AB JUMP JUMPDEST JUMPDEST PUSH2 0x521 DUP5 DUP3 DUP6 ADD PUSH2 0x4B6 JUMP JUMPDEST SWAP2 POP POP SWAP3 SWAP2 POP POP JUMP JUMPDEST PUSH32 0x4E487B7100000000000000000000000000000000000000000000000000000000 PUSH0 MSTORE PUSH1 0x22 PUSH1 0x4 MSTORE PUSH1 0x24 PUSH0 REVERT JUMPDEST PUSH0 PUSH1 0x2 DUP3 DIV SWAP1 POP PUSH1 0x1 DUP3 AND DUP1 PUSH2 0x56E JUMPI PUSH1 0x7F DUP3 AND SWAP2 POP JUMPDEST PUSH1 0x20 DUP3 LT DUP2 SUB PUSH2 0x581 JUMPI PUSH2 0x580 PUSH2 0x52A JUMP JUMPDEST JUMPDEST POP SWAP2 SWAP1 POP JUMP JUMPDEST PUSH32 0x456C207573756172696F2065732064656D61736961646F20636F72746F2E0000 PUSH0 DUP3 ADD MSTORE POP JUMP JUMPDEST PUSH0 PUSH2 0x5BB PUSH1 0x1E DUP4 PUSH2 0x317 JUMP JUMPDEST SWAP2 POP PUSH2 0x5C6 DUP3 PUSH2 0x587 JUMP JUMPDEST PUSH1 0x20 DUP3 ADD SWAP1 POP SWAP2 SWAP1 POP JUMP JUMPDEST PUSH0 PUSH1 0x20 DUP3 ADD SWAP1 POP DUP2 DUP2 SUB PUSH0 DUP4 ADD MSTORE PUSH2 0x5E8 DUP2 PUSH2 0x5AF JUMP JUMPDEST SWAP1 POP SWAP2 SWAP1 POP JUMP JUMPDEST PUSH0 DUP2 SWAP1 POP SWAP3 SWAP2 POP POP JUMP JUMPDEST PUSH0 PUSH2 0x603 DUP3 PUSH2 0x30D JUMP JUMPDEST PUSH2 0x60D DUP2 DUP6 PUSH2 0x5EF JUMP JUMPDEST SWAP4 POP PUSH2 0x61D DUP2 DUP6 PUSH1 0x20 DUP7 ADD PUSH2 0x327 JUMP JUMPDEST DUP1 DUP5 ADD SWAP2 POP POP SWAP3 SWAP2 POP POP JUMP JUMPDEST PUSH0 PUSH2 0x634 DUP3 DUP5 PUSH2 0x5F9 JUMP JUMPDEST SWAP2 POP DUP2 SWAP1 POP SWAP3 SWAP2 POP POP JUMP JUMPDEST PUSH32 0x4E487B7100000000000000000000000000000000000000000000000000000000 PUSH0 MSTORE PUSH1 0x32 PUSH1 0x4 MSTORE PUSH1 0x24 PUSH0 REVERT JUMPDEST PUSH0 DUP2 SWAP1 POP DUP2 PUSH0 MSTORE PUSH1 0x20 PUSH0 KECCAK256 SWAP1 POP SWAP2 SWAP1 POP JUMP JUMPDEST PUSH0 DUP2 SLOAD PUSH2 0x68A DUP2 PUSH2 0x557 JUMP JUMPDEST PUSH2 0x694 DUP2 DUP7 PUSH2 0x5EF JUMP JUMPDEST SWAP5 POP PUSH1 0x1 DUP3 AND PUSH0 DUP2 EQ PUSH2 0x6AE JUMPI PUSH1 0x1 DUP2 EQ PUSH2 0x6C3 JUMPI PUSH2 0x6F5 JUMP JUMPDEST PUSH1 0xFF NOT DUP4 AND DUP7 MSTORE DUP2 ISZERO ISZERO DUP3 MUL DUP7 ADD SWAP4 POP PUSH2 0x6F5 JUMP JUMPDEST PUSH2 0x6CC DUP6 PUSH2 0x66C JUMP JUMPDEST PUSH0 JUMPDEST DUP4 DUP2 LT ISZERO PUSH2 0x6ED JUMPI DUP2 SLOAD DUP2 DUP10 ADD MSTORE PUSH1 0x1 DUP3 ADD SWAP2 POP PUSH1 0x20 DUP2 ADD SWAP1 POP PUSH2 0x6CE JUMP JUMPDEST DUP4 DUP9 ADD SWAP6 POP POP POP JUMPDEST POP POP POP SWAP3 SWAP2 POP POP JUMP JUMPDEST PUSH0 PUSH2 0x709 DUP3 DUP5 PUSH2 0x67E JUMP JUMPDEST SWAP2 POP DUP2 SWAP1 POP SWAP3 SWAP2 POP POP JUMP JUMPDEST PUSH0 PUSH1 0x20 PUSH1 0x1F DUP4 ADD DIV SWAP1 POP SWAP2 SWAP1 POP JUMP JUMPDEST PUSH0 DUP3 DUP3 SHL SWAP1 POP SWAP3 SWAP2 POP POP JUMP JUMPDEST PUSH0 PUSH1 0x8 DUP4 MUL PUSH2 0x75E PUSH32 0xFFFFFFFFFFFFFFFFFFFFFFFFFFFFFFFFFFFFFFFFFFFFFFFFFFFFFFFFFFFFFFFF DUP3 PUSH2 0x723 JUMP JUMPDEST PUSH2 0x768 DUP7 DUP4 PUSH2 0x723 JUMP JUMPDEST SWAP6 POP DUP1 NOT DUP5 AND SWAP4 POP DUP1 DUP7 AND DUP5 OR SWAP3 POP POP POP SWAP4 SWAP3 POP POP POP JUMP JUMPDEST PUSH0 DUP2 SWAP1 POP SWAP2 SWAP1 POP JUMP JUMPDEST PUSH0 PUSH2 0x7A3 PUSH2 0x79E PUSH2 0x799 DUP5 PUSH2 0x2AF JUMP JUMPDEST PUSH2 0x780 JUMP JUMPDEST PUSH2 0x2AF JUMP JUMPDEST SWAP1 POP SWAP2 SWAP1 POP JUMP JUMPDEST PUSH0 DUP2 SWAP1 POP SWAP2 SWAP1 POP JUMP JUMPDEST PUSH2 0x7BC DUP4 PUSH2 0x789 JUMP JUMPDEST PUSH2 0x7D0 PUSH2 0x7C8 DUP3 PUSH2 0x7AA JUMP JUMPDEST DUP5 DUP5 SLOAD PUSH2 0x72F JUMP JUMPDEST DUP3 SSTORE POP POP POP POP JUMP JUMPDEST PUSH0 SWAP1 JUMP JUMPDEST PUSH2 0x7E4 PUSH2 0x7D8 JUMP JUMPDEST PUSH2 0x7EF DUP2 DUP5 DUP5 PUSH2 0x7B3 JUMP JUMPDEST POP POP POP JUMP JUMPDEST JUMPDEST DUP2 DUP2 LT ISZERO PUSH2 0x812 JUMPI PUSH2 0x807 PUSH0 DUP3 PUSH2 0x7DC JUMP JUMPDEST PUSH1 0x1 DUP2 ADD SWAP1 POP PUSH2 0x7F5 JUMP JUMPDEST POP POP JUMP JUMPDEST PUSH1 0x1F DUP3 GT ISZERO PUSH2 0x857 JUMPI PUSH2 0x828 DUP2 PUSH2 0x66C JUMP JUMPDEST PUSH2 0x831 DUP5 PUSH2 0x714 JUMP JUMPDEST DUP2 ADD PUSH1 0x20 DUP6 LT ISZERO PUSH2 0x840 JUMPI DUP2 SWAP1 POP JUMPDEST PUSH2 0x854 PUSH2 0x84C DUP6 PUSH2 0x714 JUMP JUMPDEST DUP4 ADD DUP3 PUSH2 0x7F4 JUMP JUMPDEST POP POP JUMPDEST POP POP POP JUMP JUMPDEST PUSH0 DUP3 DUP3 SHR SWAP1 POP SWAP3 SWAP2 POP POP JUMP JUMPDEST PUSH0 PUSH2 0x877 PUSH0 NOT DUP5 PUSH1 0x8 MUL PUSH2 0x85C JUMP JUMPDEST NOT DUP1 DUP4 AND SWAP2 POP POP SWAP3 SWAP2 POP POP JUMP JUMPDEST PUSH0 PUSH2 0x88F DUP4 DUP4 PUSH2 0x868 JUMP JUMPDEST SWAP2 POP DUP3 PUSH1 0x2 MUL DUP3 OR SWAP1 POP SWAP3 SWAP2 POP POP JUMP JUMPDEST PUSH2 0x8A8 DUP3 PUSH2 0x30D JUMP JUMPDEST PUSH8 0xFFFFFFFFFFFFFFFF DUP2 GT ISZERO PUSH2 0x8C1 JUMPI PUSH2 0x8C0 PUSH2 0x3BF JUMP JUMPDEST JUMPDEST PUSH2 0x8CB DUP3 SLOAD PUSH2 0x557 JUMP JUMPDEST PUSH2 0x8D6 DUP3 DUP3 DUP6 PUSH2 0x816 JUMP JUMPDEST PUSH0 PUSH1 0x20 SWAP1 POP PUSH1 0x1F DUP4 GT PUSH1 0x1 DUP2 EQ PUSH2 0x907 JUMPI PUSH0 DUP5 ISZERO PUSH2 0x8F5 JUMPI DUP3 DUP8 ADD MLOAD SWAP1 POP JUMPDEST PUSH2 0x8FF DUP6 DUP3 PUSH2 0x884 JUMP JUMPDEST DUP7 SSTORE POP PUSH2 0x966 JUMP JUMPDEST PUSH1 0x1F NOT DUP5 AND PUSH2 0x915 DUP7 PUSH2 0x66C JUMP JUMPDEST PUSH0 JUMPDEST DUP3 DUP2 LT ISZERO PUSH2 0x93C JUMPI DUP5 DUP10 ADD MLOAD DUP3 SSTORE PUSH1 0x1 DUP3 ADD SWAP2 POP PUSH1 0x20 DUP6 ADD SWAP5 POP PUSH1 0x20 DUP2 ADD SWAP1 POP PUSH2 0x917 JUMP JUMPDEST DUP7 DUP4 LT ISZERO PUSH2 0x959 JUMPI DUP5 DUP10 ADD MLOAD PUSH2 0x955 PUSH1 0x1F DUP10 AND DUP3 PUSH2 0x868 JUMP JUMPDEST DUP4 SSTORE POP JUMPDEST PUSH1 0x1 PUSH1 0x2 DUP9 MUL ADD DUP9 SSTORE POP POP POP JUMPDEST POP POP POP POP POP POP JUMP INVALID GASLIMIT PUSH13 0x207573756172696F2079612065 PUSH25 0x697374652C20706F72206661766F7220696E74726F64756365 KECCAK256 PUSH16 0x74726F2EA2646970667358221220B733 0xD5 0xC3 CALLDATASIZE 0x21 PUSH7 0x7325AD46AB4A12 LOG1 KECCAK256 PUSH16 0x2F7A0939E6897973C0B188712DE20164 PUSH20 0x6F6C634300081800330000000000000000000000 "
				},
				"gasEstimates": {
					"creation": {
						"codeDepositCost": "503000",
						"executionCost": "infinite",
						"totalCost": "infinite"
					},
					"external": {
						"insert1(string)": "infinite",
						"users(uint256)": "infinite"
					}
				},
				"methodIdentifiers": {
					"insert1(string)": "8b7afd1e",
					"users(uint256)": "365b98b2"
				}
			},
			"storageLayout": {
				"storage": [
					{
						"astId": 10,
						"contract": "Bloque 2 Remix/Users.sol:Users",
						"label": "users",
						"offset": 0,
						"slot": "0",
						"type": "t_array(t_string_storage)dyn_storage"
					}
				],
				"types": {
					"t_array(t_string_storage)dyn_storage": {
						"base": "t_string_storage",
						"encoding": "dynamic_array",
						"label": "string[]",
						"numberOfBytes": "32"
					},
					"t_string_storage": {
						"encoding": "bytes",
						"label": "string",
						"numberOfBytes": "32"
					}
				}
			},
			"userdoc": {
				"kind": "user",
				"methods": {},
				"version": 1
			}
		}
	}
}